{
  "contractName": "TokenOwnership",
  "abi": [
    {
      "constant": true,
      "inputs": [],
      "name": "getLengthOfWorkDataBase",
      "outputs": [
        {
          "name": "",
          "type": "uint256"
        }
      ],
      "payable": false,
      "stateMutability": "view",
      "type": "function"
    },
    {
      "constant": true,
      "inputs": [
        {
          "name": "",
          "type": "address"
        }
      ],
      "name": "addressToTokenCount",
      "outputs": [
        {
          "name": "",
          "type": "uint256"
        }
      ],
      "payable": false,
      "stateMutability": "view",
      "type": "function"
    },
    {
      "constant": true,
      "inputs": [
        {
          "name": "_address",
          "type": "address"
        }
      ],
      "name": "getWorkListWithTokenCountFromAddress",
      "outputs": [
        {
          "name": "workId",
          "type": "uint256[]"
        },
        {
          "name": "numberOfTokens",
          "type": "uint256[]"
        }
      ],
      "payable": false,
      "stateMutability": "view",
      "type": "function"
    },
    {
      "constant": true,
      "inputs": [
        {
          "name": "",
          "type": "uint256"
        }
      ],
      "name": "tokenIdToOwner",
      "outputs": [
        {
          "name": "",
          "type": "address"
        }
      ],
      "payable": false,
      "stateMutability": "view",
      "type": "function"
    },
    {
      "constant": true,
      "inputs": [
        {
          "name": "",
          "type": "uint256"
        }
      ],
      "name": "rcnDB",
      "outputs": [
        {
          "name": "",
          "type": "uint256"
        }
      ],
      "payable": false,
      "stateMutability": "view",
      "type": "function"
    },
    {
      "constant": true,
      "inputs": [
        {
          "name": "",
          "type": "uint256"
        }
      ],
      "name": "workDB",
      "outputs": [
        {
          "name": "birthTime",
          "type": "uint64"
        },
        {
          "name": "typeOfWork",
          "type": "string"
        },
        {
          "name": "fingerprint",
          "type": "uint256"
        }
      ],
      "payable": false,
      "stateMutability": "view",
      "type": "function"
    },
    {
      "constant": true,
      "inputs": [],
      "name": "NAME",
      "outputs": [
        {
          "name": "",
          "type": "string"
        }
      ],
      "payable": false,
      "stateMutability": "view",
      "type": "function"
    },
    {
      "constant": true,
      "inputs": [
        {
          "name": "_id",
          "type": "uint256"
        }
      ],
      "name": "getWorkById",
      "outputs": [
        {
          "name": "",
          "type": "uint64"
        },
        {
          "name": "",
          "type": "string"
        },
        {
          "name": "",
          "type": "uint256"
        },
        {
          "name": "",
          "type": "address[]"
        },
        {
          "name": "",
          "type": "uint256[]"
        }
      ],
      "payable": false,
      "stateMutability": "view",
      "type": "function"
    },
    {
      "constant": true,
      "inputs": [
        {
          "name": "",
          "type": "address"
        },
        {
          "name": "",
          "type": "uint256"
        }
      ],
      "name": "addressToWorkList",
      "outputs": [
        {
          "name": "",
          "type": "uint256"
        }
      ],
      "payable": false,
      "stateMutability": "view",
      "type": "function"
    },
    {
      "constant": true,
      "inputs": [
        {
          "name": "_workId",
          "type": "uint256"
        },
        {
          "name": "_address",
          "type": "address"
        }
      ],
      "name": "getTokensFromWorkIdAndAddress",
      "outputs": [
        {
          "name": "tokenIdList",
          "type": "uint256[]"
        }
      ],
      "payable": false,
      "stateMutability": "view",
      "type": "function"
    },
    {
      "constant": false,
      "inputs": [
        {
          "name": "_typeOfWork",
          "type": "string"
        },
        {
          "name": "_fingerprint",
          "type": "uint256"
        },
        {
          "name": "_contributors",
          "type": "address[]"
        },
        {
          "name": "_splits",
          "type": "uint256[]"
        }
      ],
      "name": "createWork",
      "outputs": [],
      "payable": false,
      "stateMutability": "nonpayable",
      "type": "function"
    },
    {
      "constant": true,
      "inputs": [
        {
          "name": "",
          "type": "uint256"
        }
      ],
      "name": "tokenIdToApproved",
      "outputs": [
        {
          "name": "",
          "type": "address"
        }
      ],
      "payable": false,
      "stateMutability": "view",
      "type": "function"
    },
    {
      "constant": true,
      "inputs": [
        {
          "name": "",
          "type": "uint256"
        },
        {
          "name": "",
          "type": "uint256"
        }
      ],
      "name": "workIdToTokenList",
      "outputs": [
        {
          "name": "",
          "type": "uint256"
        }
      ],
      "payable": false,
      "stateMutability": "view",
      "type": "function"
    },
    {
      "constant": true,
      "inputs": [],
      "name": "SYMBOL",
      "outputs": [
        {
          "name": "",
          "type": "string"
        }
      ],
      "payable": false,
      "stateMutability": "view",
      "type": "function"
    },
    {
      "anonymous": false,
      "inputs": [
        {
          "indexed": false,
          "name": "typeOfWorkCreate",
          "type": "string"
        },
        {
          "indexed": false,
          "name": "fingerprintCreate",
          "type": "uint256"
        },
        {
          "indexed": false,
          "name": "contributorsCreate",
          "type": "address[]"
        },
        {
          "indexed": false,
          "name": "splitsCreate",
          "type": "uint256[]"
        }
      ],
      "name": "Create",
      "type": "event"
    },
    {
      "anonymous": false,
      "inputs": [
        {
          "indexed": false,
          "name": "from",
          "type": "address"
        },
        {
          "indexed": false,
          "name": "to",
          "type": "address"
        },
        {
          "indexed": false,
          "name": "tokenId",
          "type": "uint256"
        }
      ],
      "name": "Transfer",
      "type": "event"
    },
    {
      "anonymous": false,
      "inputs": [
        {
          "indexed": false,
          "name": "owner",
          "type": "address"
        },
        {
          "indexed": false,
          "name": "approved",
          "type": "address"
        },
        {
          "indexed": false,
          "name": "tokenId",
          "type": "uint256"
        }
      ],
      "name": "Approval",
      "type": "event"
    },
    {
      "constant": false,
      "inputs": [
        {
          "name": "_to",
          "type": "address"
        },
        {
          "name": "_tokenId",
          "type": "uint256"
        }
      ],
      "name": "approve",
      "outputs": [],
      "payable": false,
      "stateMutability": "nonpayable",
      "type": "function"
    },
    {
      "constant": false,
      "inputs": [
        {
          "name": "_from",
          "type": "address"
        },
        {
          "name": "_to",
          "type": "address"
        },
        {
          "name": "_tokenId",
          "type": "uint256"
        }
      ],
      "name": "transferFrom",
      "outputs": [],
      "payable": false,
      "stateMutability": "nonpayable",
      "type": "function"
    },
    {
      "constant": false,
      "inputs": [
        {
          "name": "_to",
          "type": "address"
        },
        {
          "name": "_tokenId",
          "type": "uint256"
        }
      ],
      "name": "transfer",
      "outputs": [],
      "payable": false,
      "stateMutability": "nonpayable",
      "type": "function"
    },
    {
      "constant": true,
      "inputs": [
        {
          "name": "_tokenId",
          "type": "uint256"
        }
      ],
      "name": "ownerOf",
      "outputs": [
        {
          "name": "",
          "type": "address"
        }
      ],
      "payable": false,
      "stateMutability": "view",
      "type": "function"
    },
    {
      "constant": true,
      "inputs": [],
      "name": "totalSupply",
      "outputs": [
        {
          "name": "",
          "type": "uint256"
        }
      ],
      "payable": false,
      "stateMutability": "view",
      "type": "function"
    },
    {
      "constant": true,
      "inputs": [
        {
          "name": "_owner",
          "type": "address"
        }
      ],
      "name": "balanceOf",
      "outputs": [
        {
          "name": "",
          "type": "uint256"
        }
      ],
      "payable": false,
      "stateMutability": "view",
      "type": "function"
    }
  ],
  "bytecode": "0x6060604052341561000f57600080fd5b611f478061001e6000396000f300606060405260043610610112576000357c0100000000000000000000000000000000000000000000000000000000900463ffffffff168063095ea7b314610117578063143f37061461015957806318160ddd1461018257806321f94285146101ab57806323b872dd146101f85780634503222c146102595780636352211e1461032f5780636e9e48ef1461039257806370a08231146103f557806380d5a875146104425780639d079d0014610479578063a3f4df7e14610554578063a9059cbb146105e2578063bdf1fcc914610624578063ca8b3eb214610772578063d707bb4c146107c8578063d8e1609f1461085f578063eb5653d714610945578063efbdc992146109a8578063f76f8d78146109e8575b600080fd5b341561012257600080fd5b610157600480803573ffffffffffffffffffffffffffffffffffffffff16906020019091908035906020019091905050610a76565b005b341561016457600080fd5b61016c610ae1565b6040518082815260200191505060405180910390f35b341561018d57600080fd5b610195610aed565b6040518082815260200191505060405180910390f35b34156101b657600080fd5b6101e2600480803573ffffffffffffffffffffffffffffffffffffffff16906020019091905050610afa565b6040518082815260200191505060405180910390f35b341561020357600080fd5b610257600480803573ffffffffffffffffffffffffffffffffffffffff1690602001909190803573ffffffffffffffffffffffffffffffffffffffff16906020019091908035906020019091905050610b12565b005b341561026457600080fd5b610290600480803573ffffffffffffffffffffffffffffffffffffffff16906020019091905050610be0565b604051808060200180602001838103835285818151815260200191508051906020019060200280838360005b838110156102d75780820151818401526020810190506102bc565b50505050905001838103825284818151815260200191508051906020019060200280838360005b838110156103195780820151818401526020810190506102fe565b5050505090500194505050505060405180910390f35b341561033a57600080fd5b6103506004808035906020019091905050610d70565b604051808273ffffffffffffffffffffffffffffffffffffffff1673ffffffffffffffffffffffffffffffffffffffff16815260200191505060405180910390f35b341561039d57600080fd5b6103b36004808035906020019091905050610dee565b604051808273ffffffffffffffffffffffffffffffffffffffff1673ffffffffffffffffffffffffffffffffffffffff16815260200191505060405180910390f35b341561040057600080fd5b61042c600480803573ffffffffffffffffffffffffffffffffffffffff16906020019091905050610e21565b6040518082815260200191505060405180910390f35b341561044d57600080fd5b6104636004808035906020019091905050610e6a565b6040518082815260200191505060405180910390f35b341561048457600080fd5b61049a6004808035906020019091905050610e8e565b604051808467ffffffffffffffff1667ffffffffffffffff168152602001806020018381526020018281038252848181546001816001161561010002031660029004815260200191508054600181600116156101000203166002900480156105435780601f1061051857610100808354040283529160200191610543565b820191906000526020600020905b81548152906001019060200180831161052657829003601f168201915b505094505050505060405180910390f35b341561055f57600080fd5b610567610eda565b6040518080602001828103825283818151815260200191508051906020019080838360005b838110156105a757808201518184015260208101905061058c565b50505050905090810190601f1680156105d45780820380516001836020036101000a031916815260200191505b509250505060405180910390f35b34156105ed57600080fd5b610622600480803573ffffffffffffffffffffffffffffffffffffffff16906020019091908035906020019091905050610f13565b005b341561062f57600080fd5b6106456004808035906020019091905050610f37565b604051808667ffffffffffffffff1667ffffffffffffffff168152602001806020018581526020018060200180602001848103845288818151815260200191508051906020019080838360005b838110156106ad578082015181840152602081019050610692565b50505050905090810190601f1680156106da5780820380516001836020036101000a031916815260200191505b50848103835286818151815260200191508051906020019060200280838360005b838110156107165780820151818401526020810190506106fb565b50505050905001848103825285818151815260200191508051906020019060200280838360005b8381101561075857808201518184015260208101905061073d565b505050509050019850505050505050505060405180910390f35b341561077d57600080fd5b6107b2600480803573ffffffffffffffffffffffffffffffffffffffff16906020019091908035906020019091905050611180565b6040518082815260200191505060405180910390f35b34156107d357600080fd5b610808600480803590602001909190803573ffffffffffffffffffffffffffffffffffffffff169060200190919050506111b1565b6040518080602001828103825283818151815260200191508051906020019060200280838360005b8381101561084b578082015181840152602081019050610830565b505050509050019250505060405180910390f35b341561086a57600080fd5b610943600480803590602001908201803590602001908080601f0160208091040260200160405190810160405280939291908181526020018383808284378201915050505050509190803590602001909190803590602001908201803590602001908080602002602001604051908101604052809392919081815260200183836020028082843782019150505050505091908035906020019082018035906020019080806020026020016040519081016040528093929190818152602001838360200280828437820191505050505050919050506112da565b005b341561095057600080fd5b610966600480803590602001909190505061165f565b604051808273ffffffffffffffffffffffffffffffffffffffff1673ffffffffffffffffffffffffffffffffffffffff16815260200191505060405180910390f35b34156109b357600080fd5b6109d26004808035906020019091908035906020019091905050611692565b6040518082815260200191505060405180910390f35b34156109f357600080fd5b6109fb6116c3565b6040518080602001828103825283818151815260200191508051906020019080838360005b83811015610a3b578082015181840152602081019050610a20565b50505050905090810190601f168015610a685780820380516001836020036101000a031916815260200191505b509250505060405180910390f35b610a8033826116fc565b1515610a8b57600080fd5b816006600083815260200190815260200160002060006101000a81548173ffffffffffffffffffffffffffffffffffffffff021916908373ffffffffffffffffffffffffffffffffffffffff1602179055505050565b60008080549050905090565b6000600180549050905090565b60056020528060005260406000206000915090505481565b600073ffffffffffffffffffffffffffffffffffffffff168273ffffffffffffffffffffffffffffffffffffffff1614151515610b4e57600080fd5b610b5883826116fc565b1515610b6357600080fd5b6006600082815260200190815260200160002060009054906101000a900473ffffffffffffffffffffffffffffffffffffffff1673ffffffffffffffffffffffffffffffffffffffff163373ffffffffffffffffffffffffffffffffffffffff16141515610bd057600080fd5b610bdb838383611768565b505050565b610be8611b3e565b610bf0611b3e565b610bf8611b3e565b610c00611b3e565b6000610c0a611b3e565b6000600360008973ffffffffffffffffffffffffffffffffffffffff1673ffffffffffffffffffffffffffffffffffffffff168152602001908152602001600020805480602002602001604051908101604052809291908181526020018280548015610c9557602002820191906000526020600020905b815481526020019060010190808311610c81575b505050505094508451604051805910610cab5750595b90808252806020026020018201604052509350600092505b8451831015610d6057610cec8584815181101515610cdd57fe5b9060200190602002015161194f565b9150600090505b8151811015610d5357610d1d888383815181101515610d0e57fe5b906020019060200201516116fc565b15610d46578383815181101515610d3057fe5b9060200190602002018051809190600101815250505b8080600101915050610cf3565b8280600101935050610cc3565b8484965096505050505050915091565b6000806002600084815260200190815260200160002060009054906101000a900473ffffffffffffffffffffffffffffffffffffffff169050600073ffffffffffffffffffffffffffffffffffffffff168173ffffffffffffffffffffffffffffffffffffffff1614151515610de557600080fd5b80915050919050565b60026020528060005260406000206000915054906101000a900473ffffffffffffffffffffffffffffffffffffffff1681565b6000600560008373ffffffffffffffffffffffffffffffffffffffff1673ffffffffffffffffffffffffffffffffffffffff168152602001908152602001600020549050919050565b600181815481101515610e7957fe5b90600052602060002090016000915090505481565b600081815481101515610e9d57fe5b90600052602060002090600502016000915090508060000160009054906101000a900467ffffffffffffffff169080600101908060020154905083565b6040805190810160405280600981526020017f5269676874436f696e000000000000000000000000000000000000000000000081525081565b610f1d33826116fc565b1515610f2857600080fd5b610f33338383611768565b5050565b6000610f41611b52565b6000610f4b611b66565b610f53611b3e565b610f5b611b7a565b600087815481101515610f6a57fe5b906000526020600020906005020160a060405190810160405290816000820160009054906101000a900467ffffffffffffffff1667ffffffffffffffff1667ffffffffffffffff168152602001600182018054600181600116156101000203166002900480601f01602080910402602001604051908101604052809291908181526020018280546001816001161561010002031660029004801561104f5780601f106110245761010080835404028352916020019161104f565b820191906000526020600020905b81548152906001019060200180831161103257829003601f168201915b5050505050815260200160028201548152602001600382018054806020026020016040519081016040528092919081815260200182805480156110e757602002820191906000526020600020905b8160009054906101000a900473ffffffffffffffffffffffffffffffffffffffff1673ffffffffffffffffffffffffffffffffffffffff168152602001906001019080831161109d575b505050505081526020016004820180548060200260200160405190810160405280929190818152602001828054801561113f57602002820191906000526020600020905b81548152602001906001019080831161112b575b505050505081525050905080600001518160200151826040015183606001518460800151839350819150809050955095509550955095505091939590929450565b60036020528160005260406000208181548110151561119b57fe5b9060005260206000209001600091509150505481565b6111b9611b3e565b6111c1611b3e565b6000806111cc611b3e565b6000806111d88961194f565b955060009450600093505b85518410156112285761120d8887868151811015156111fe57fe5b906020019060200201516116fc565b1561121b5784806001019550505b83806001019450506111e3565b846040518059106112365750595b9080825280602002602001820160405250925060009150600090505b85518110156112cb5761127c88878381518110151561126d57fe5b906020019060200201516116fc565b156112be57858181518110151561128f57fe5b9060200190602002015183838151811015156112a757fe5b906020019060200201818152505081806001019250505b8080600101915050611252565b82965050505050505092915050565b6112e2611b7a565b600080600080600060a0604051908101604052804267ffffffffffffffff1681526020018b81526020018a81526020018981526020018881525095506001600080548060010182816113349190611bc6565b9160005260206000209060050201600089909190915060008201518160000160006101000a81548167ffffffffffffffff021916908367ffffffffffffffff1602179055506020820151816001019080519060200190611395929190611bf8565b506040820151816002015560608201518160030190805190602001906113bc929190611c78565b5060808201518160040190805190602001906113d9929190611d02565b505050039450600093505b875184101561151d5787848151811015156113fb57fe5b906020019060200201519250600360008473ffffffffffffffffffffffffffffffffffffffff1673ffffffffffffffffffffffffffffffffffffffff16815260200190815260200160002080548060010182816114589190611d4f565b916000526020600020900160008790919091505550600091505b868481518110151561148057fe5b906020019060200201518210156115105760018080548060010182816114a69190611d4f565b91600052602060002090016000889091909150550390506004600086815260200190815260200160002080548060010182816114e29190611d4f565b91600052602060002090016000839091909150555061150360008483611768565b8180600101925050611472565b83806001019450506113e4565b7fe89359c3ee2f57a8387c3af0a1e675b72db822c2c9278164eacbcf01fd41c2948a8a8a8a60405180806020018581526020018060200180602001848103845288818151815260200191508051906020019080838360005b83811015611590578082015181840152602081019050611575565b50505050905090810190601f1680156115bd5780820380516001836020036101000a031916815260200191505b50848103835286818151815260200191508051906020019060200280838360005b838110156115f95780820151818401526020810190506115de565b50505050905001848103825285818151815260200191508051906020019060200280838360005b8381101561163b578082015181840152602081019050611620565b5050505090500197505050505050505060405180910390a150505050505050505050565b60066020528060005260406000206000915054906101000a900473ffffffffffffffffffffffffffffffffffffffff1681565b6004602052816000526040600020818154811015156116ad57fe5b9060005260206000209001600091509150505481565b6040805190810160405280600381526020017f52434e000000000000000000000000000000000000000000000000000000000081525081565b60008273ffffffffffffffffffffffffffffffffffffffff166002600084815260200190815260200160002060009054906101000a900473ffffffffffffffffffffffffffffffffffffffff1673ffffffffffffffffffffffffffffffffffffffff1614905092915050565b6000600560008473ffffffffffffffffffffffffffffffffffffffff1673ffffffffffffffffffffffffffffffffffffffff16815260200190815260200160002060008154809291906001019190505550826002600084815260200190815260200160002060006101000a81548173ffffffffffffffffffffffffffffffffffffffff021916908373ffffffffffffffffffffffffffffffffffffffff160217905550600073ffffffffffffffffffffffffffffffffffffffff168473ffffffffffffffffffffffffffffffffffffffff1614151561194957600560008573ffffffffffffffffffffffffffffffffffffffff1673ffffffffffffffffffffffffffffffffffffffff16815260200190815260200160002060008154809291906001900391905055506006600083815260200190815260200160002060006101000a81549073ffffffffffffffffffffffffffffffffffffffff02191690556118d0826119c0565b90506118dc8184611a52565b1561194857600360008473ffffffffffffffffffffffffffffffffffffffff1673ffffffffffffffffffffffffffffffffffffffff16815260200190815260200160002080548060010182816119329190611d4f565b9160005260206000209001600083909190915055505b5b50505050565b611957611b3e565b600460008381526020019081526020016000208054806020026020016040519081016040528092919081815260200182805480156119b457602002820191906000526020600020905b8154815260200190600101908083116119a0575b50505050509050919050565b60008073ffffffffffffffffffffffffffffffffffffffff166002600084815260200190815260200160002060009054906101000a900473ffffffffffffffffffffffffffffffffffffffff1673ffffffffffffffffffffffffffffffffffffffff1614151515611a3057600080fd5b600182815481101515611a3f57fe5b9060005260206000209001549050919050565b6000611a5c611b3e565b6000600360008573ffffffffffffffffffffffffffffffffffffffff1673ffffffffffffffffffffffffffffffffffffffff168152602001908152602001600020805480602002602001604051908101604052809291908181526020018280548015611ae757602002820191906000526020600020905b815481526020019060010190808311611ad3575b50505050509150600090505b8151811015611b31578181815181101515611b0a57fe5b90602001906020020151851415611b245760009250611b36565b8080600101915050611af3565b600192505b505092915050565b602060405190810160405280600081525090565b602060405190810160405280600081525090565b602060405190810160405280600081525090565b60a060405190810160405280600067ffffffffffffffff168152602001611b9f611d7b565b815260200160008152602001611bb3611d8f565b8152602001611bc0611da3565b81525090565b815481835581811511611bf357600502816005028360005260206000209182019101611bf29190611db7565b5b505050565b828054600181600116156101000203166002900490600052602060002090601f016020900481019282601f10611c3957805160ff1916838001178555611c67565b82800160010185558215611c67579182015b82811115611c66578251825591602001919060010190611c4b565b5b509050611c749190611e29565b5090565b828054828255906000526020600020908101928215611cf1579160200282015b82811115611cf05782518260006101000a81548173ffffffffffffffffffffffffffffffffffffffff021916908373ffffffffffffffffffffffffffffffffffffffff16021790555091602001919060010190611c98565b5b509050611cfe9190611e4e565b5090565b828054828255906000526020600020908101928215611d3e579160200282015b82811115611d3d578251825591602001919060010190611d22565b5b509050611d4b9190611e29565b5090565b815481835581811511611d7657818360005260206000209182019101611d759190611e29565b5b505050565b602060405190810160405280600081525090565b602060405190810160405280600081525090565b602060405190810160405280600081525090565b611e2691905b80821115611e2257600080820160006101000a81549067ffffffffffffffff0219169055600182016000611df19190611e91565b6002820160009055600382016000611e099190611ed9565b600482016000611e199190611efa565b50600501611dbd565b5090565b90565b611e4b91905b80821115611e47576000816000905550600101611e2f565b5090565b90565b611e8e91905b80821115611e8a57600081816101000a81549073ffffffffffffffffffffffffffffffffffffffff021916905550600101611e54565b5090565b90565b50805460018160011615610100020316600290046000825580601f10611eb75750611ed6565b601f016020900490600052602060002090810190611ed59190611e29565b5b50565b5080546000825590600052602060002090810190611ef79190611e29565b50565b5080546000825590600052602060002090810190611f189190611e29565b505600a165627a7a723058200d38ca1ab5e591eb76fa72746b15a5223a8acaae1f6d4b1f36fd72e58a0d97170029",
  "source": "pragma solidity ^0.4.19;\n\nimport \"./WorkBase.sol\";\nimport \"./erc721.sol\";\n\n\ncontract TokenOwnership is ERC721, WorkBase {\n\n\n    //Name and symbol of the non-fungible token as defined in ERC721\n    string public constant NAME = \"RightCoin\";\n    string public constant SYMBOL = \"RCN\";\n\n    //External functions required for ERC-721 compliance\n    //\n    /*\n    Grant another address the right to transfer a specific token via TransferFrom()\n    _to is the address to be granted transfer approvals\n    Use address(0) to clear an approval\n    */\n    function approve(address _to, uint256 _tokenId) external {\n        //only the owner of a token can grant transfer approval for that token\n        require(_owns(msg.sender, _tokenId));\n\n        //register the approval (replacing any previous  approvals)\n        tokenIdToApproved[_tokenId] = _to;\n\n        //Must also emit Approval-Event\n    }\n\n    /*\n    Transfer a token owner by another address\n    The calling address must previously have beeen granted approval by the owner\n    _from is the address that owns the token\n    _to is the address that will take ownership of the token (can be the caller)\n    _tokenId is the ID of the token to be transferred\n    */\n    function transferFrom(address _from, address _to, uint256 _tokenId) external {\n        //check for non-zero-address 0x0\n        require(_to != address(0));\n\n        //Check for valid ownership\n        require(_owns(_from, _tokenId));\n\n        //check for valid transfer approval\n        require(msg.sender == tokenIdToApproved[_tokenId]);\n\n        _transferToken(_from, _to, _tokenId);\n    }\n\n    /*\n    transfers an rcn-token to another address\n    _to is the address of the recipient\n    _tokenId is the ID of the rcn-token to be transferred\n    */\n    function transfer(address _to, uint256 _tokenId) external {\n        require(_owns(msg.sender, _tokenId));\n\n        _transferToken(msg.sender, _to, _tokenId);\n    }\n    /*\n    returning the list of all tokenIds owned by an address\n    This is quire expensive and can crash the program if _owner has ownership of many tokens\n    This function is optional\n\n    function tokensOfOwner(address _owner) external view returns (uint256[] tokenIds) {\n    }\n    */\n\n    //returning the address that has currently ownership of a tokenId\n    function ownerOf(uint256 _tokenId) external view returns (address) {\n        address owner = tokenIdToOwner[_tokenId];\n\n        //throws exception if the address is 0x0\n        require(owner != address(0));\n        return (owner);\n    }\n\n    //public functions defined as in ERC721.sol\n    //\n    //returns the total supply of all circulating rcn-tokens\n    function totalSupply() public view returns (uint256) {\n        return rcnDB.length;\n    }\n\n    //returns the token count for a given address owns\n    function balanceOf(address _owner) public view returns (uint256) {\n        return addressToTokenCount[_owner];\n    }\n}\n",
  "sourcePath": "/Users/andreasengebretsen/Documents/MasterProject/CopyrightsChain/contracts/TokenOwnership.sol",
  "compiler": {
    "name": "solc",
    "version": "0.4.19+commit.c4cbbb05.Emscripten.clang"
  },
  "schemaVersion": "2.0.0",
  "updatedAt": "2018-03-13T19:36:36.886Z"
}