{
  "contractName": "TokenOwnership",
  "abi": [
    {
      "constant": true,
      "inputs": [],
      "name": "getLengthOfWorkDataBase",
      "outputs": [
        {
          "name": "",
          "type": "uint256"
        }
      ],
      "payable": false,
      "stateMutability": "view",
      "type": "function"
    },
    {
      "constant": true,
      "inputs": [
        {
          "name": "",
          "type": "address"
        }
      ],
      "name": "addressToTokenCount",
      "outputs": [
        {
          "name": "",
          "type": "uint256"
        }
      ],
      "payable": false,
      "stateMutability": "view",
      "type": "function"
    },
    {
      "constant": true,
      "inputs": [
        {
          "name": "_address",
          "type": "address"
        }
      ],
      "name": "getWorkListWithTokenCountFromAddress",
      "outputs": [
        {
          "name": "",
          "type": "uint256[]"
        },
        {
          "name": "",
          "type": "uint256[]"
        }
      ],
      "payable": false,
      "stateMutability": "view",
      "type": "function"
    },
    {
      "constant": true,
      "inputs": [
        {
          "name": "",
          "type": "uint256"
        }
      ],
      "name": "tokenIdToOwner",
      "outputs": [
        {
          "name": "",
          "type": "address"
        }
      ],
      "payable": false,
      "stateMutability": "view",
      "type": "function"
    },
    {
      "constant": true,
      "inputs": [
        {
          "name": "",
          "type": "uint256"
        }
      ],
      "name": "rcnDB",
      "outputs": [
        {
          "name": "",
          "type": "uint256"
        }
      ],
      "payable": false,
      "stateMutability": "view",
      "type": "function"
    },
    {
      "constant": true,
      "inputs": [
        {
          "name": "",
          "type": "uint256"
        }
      ],
      "name": "workDB",
      "outputs": [
        {
          "name": "birthTime",
          "type": "uint64"
        },
        {
          "name": "typeOfWork",
          "type": "string"
        },
        {
          "name": "fingerprint",
          "type": "uint256"
        }
      ],
      "payable": false,
      "stateMutability": "view",
      "type": "function"
    },
    {
      "constant": true,
      "inputs": [],
      "name": "NAME",
      "outputs": [
        {
          "name": "",
          "type": "string"
        }
      ],
      "payable": false,
      "stateMutability": "view",
      "type": "function"
    },
    {
      "constant": true,
      "inputs": [
        {
          "name": "_id",
          "type": "uint256"
        }
      ],
      "name": "getWorkById",
      "outputs": [
        {
          "name": "",
          "type": "uint64"
        },
        {
          "name": "",
          "type": "string"
        },
        {
          "name": "",
          "type": "uint256"
        },
        {
          "name": "",
          "type": "address[]"
        },
        {
          "name": "",
          "type": "uint256[]"
        }
      ],
      "payable": false,
      "stateMutability": "view",
      "type": "function"
    },
    {
      "constant": true,
      "inputs": [
        {
          "name": "",
          "type": "address"
        },
        {
          "name": "",
          "type": "uint256"
        }
      ],
      "name": "addressToWorkList",
      "outputs": [
        {
          "name": "",
          "type": "uint256"
        }
      ],
      "payable": false,
      "stateMutability": "view",
      "type": "function"
    },
    {
      "constant": false,
      "inputs": [
        {
          "name": "_typeOfWork",
          "type": "string"
        },
        {
          "name": "_fingerprint",
          "type": "uint256"
        },
        {
          "name": "_contributors",
          "type": "address[]"
        },
        {
          "name": "_splits",
          "type": "uint256[]"
        }
      ],
      "name": "createWork",
      "outputs": [],
      "payable": false,
      "stateMutability": "nonpayable",
      "type": "function"
    },
    {
      "constant": true,
      "inputs": [
        {
          "name": "",
          "type": "uint256"
        }
      ],
      "name": "tokenIdToApproved",
      "outputs": [
        {
          "name": "",
          "type": "address"
        }
      ],
      "payable": false,
      "stateMutability": "view",
      "type": "function"
    },
    {
      "constant": true,
      "inputs": [
        {
          "name": "",
          "type": "uint256"
        },
        {
          "name": "",
          "type": "uint256"
        }
      ],
      "name": "workIdToTokenList",
      "outputs": [
        {
          "name": "",
          "type": "uint256"
        }
      ],
      "payable": false,
      "stateMutability": "view",
      "type": "function"
    },
    {
      "constant": true,
      "inputs": [],
      "name": "SYMBOL",
      "outputs": [
        {
          "name": "",
          "type": "string"
        }
      ],
      "payable": false,
      "stateMutability": "view",
      "type": "function"
    },
    {
      "anonymous": false,
      "inputs": [
        {
          "indexed": false,
          "name": "typeOfWorkCreate",
          "type": "string"
        },
        {
          "indexed": false,
          "name": "fingerprintCreate",
          "type": "uint256"
        },
        {
          "indexed": false,
          "name": "contributorsCreate",
          "type": "address[]"
        },
        {
          "indexed": false,
          "name": "splitsCreate",
          "type": "uint256[]"
        }
      ],
      "name": "Create",
      "type": "event"
    },
    {
      "anonymous": false,
      "inputs": [
        {
          "indexed": false,
          "name": "from",
          "type": "address"
        },
        {
          "indexed": false,
          "name": "to",
          "type": "address"
        },
        {
          "indexed": false,
          "name": "tokenId",
          "type": "uint256"
        }
      ],
      "name": "Transfer",
      "type": "event"
    },
    {
      "anonymous": false,
      "inputs": [
        {
          "indexed": false,
          "name": "owner",
          "type": "address"
        },
        {
          "indexed": false,
          "name": "approved",
          "type": "address"
        },
        {
          "indexed": false,
          "name": "tokenId",
          "type": "uint256"
        }
      ],
      "name": "Approval",
      "type": "event"
    },
    {
      "constant": false,
      "inputs": [
        {
          "name": "_to",
          "type": "address"
        },
        {
          "name": "_tokenId",
          "type": "uint256"
        }
      ],
      "name": "approve",
      "outputs": [],
      "payable": false,
      "stateMutability": "nonpayable",
      "type": "function"
    },
    {
      "constant": false,
      "inputs": [
        {
          "name": "_from",
          "type": "address"
        },
        {
          "name": "_to",
          "type": "address"
        },
        {
          "name": "_tokenId",
          "type": "uint256"
        }
      ],
      "name": "transferFrom",
      "outputs": [],
      "payable": false,
      "stateMutability": "nonpayable",
      "type": "function"
    },
    {
      "constant": false,
      "inputs": [
        {
          "name": "_to",
          "type": "address"
        },
        {
          "name": "_tokenId",
          "type": "uint256"
        }
      ],
      "name": "transfer",
      "outputs": [],
      "payable": false,
      "stateMutability": "nonpayable",
      "type": "function"
    },
    {
      "constant": true,
      "inputs": [
        {
          "name": "_tokenId",
          "type": "uint256"
        }
      ],
      "name": "ownerOf",
      "outputs": [
        {
          "name": "",
          "type": "address"
        }
      ],
      "payable": false,
      "stateMutability": "view",
      "type": "function"
    },
    {
      "constant": true,
      "inputs": [],
      "name": "totalSupply",
      "outputs": [
        {
          "name": "",
          "type": "uint256"
        }
      ],
      "payable": false,
      "stateMutability": "view",
      "type": "function"
    },
    {
      "constant": true,
      "inputs": [
        {
          "name": "_owner",
          "type": "address"
        }
      ],
      "name": "balanceOf",
      "outputs": [
        {
          "name": "",
          "type": "uint256"
        }
      ],
      "payable": false,
      "stateMutability": "view",
      "type": "function"
    }
  ],
  "bytecode": "0x6060604052341561000f57600080fd5b611d818061001e6000396000f300606060405260043610610107576000357c0100000000000000000000000000000000000000000000000000000000900463ffffffff168063095ea7b31461010c578063143f37061461014e57806318160ddd1461017757806321f94285146101a057806323b872dd146101ed5780634503222c1461024e5780636352211e146103245780636e9e48ef1461038757806370a08231146103ea57806380d5a875146104375780639d079d001461046e578063a3f4df7e14610549578063a9059cbb146105d7578063bdf1fcc914610619578063ca8b3eb214610767578063d8e1609f146107bd578063eb5653d7146108a3578063efbdc99214610906578063f76f8d7814610946575b600080fd5b341561011757600080fd5b61014c600480803573ffffffffffffffffffffffffffffffffffffffff169060200190919080359060200190919050506109d4565b005b341561015957600080fd5b610161610a3f565b6040518082815260200191505060405180910390f35b341561018257600080fd5b61018a610a4b565b6040518082815260200191505060405180910390f35b34156101ab57600080fd5b6101d7600480803573ffffffffffffffffffffffffffffffffffffffff16906020019091905050610a58565b6040518082815260200191505060405180910390f35b34156101f857600080fd5b61024c600480803573ffffffffffffffffffffffffffffffffffffffff1690602001909190803573ffffffffffffffffffffffffffffffffffffffff16906020019091908035906020019091905050610a70565b005b341561025957600080fd5b610285600480803573ffffffffffffffffffffffffffffffffffffffff16906020019091905050610b3e565b604051808060200180602001838103835285818151815260200191508051906020019060200280838360005b838110156102cc5780820151818401526020810190506102b1565b50505050905001838103825284818151815260200191508051906020019060200280838360005b8381101561030e5780820151818401526020810190506102f3565b5050505090500194505050505060405180910390f35b341561032f57600080fd5b6103456004808035906020019091905050610cd3565b604051808273ffffffffffffffffffffffffffffffffffffffff1673ffffffffffffffffffffffffffffffffffffffff16815260200191505060405180910390f35b341561039257600080fd5b6103a86004808035906020019091905050610d51565b604051808273ffffffffffffffffffffffffffffffffffffffff1673ffffffffffffffffffffffffffffffffffffffff16815260200191505060405180910390f35b34156103f557600080fd5b610421600480803573ffffffffffffffffffffffffffffffffffffffff16906020019091905050610d84565b6040518082815260200191505060405180910390f35b341561044257600080fd5b6104586004808035906020019091905050610dcd565b6040518082815260200191505060405180910390f35b341561047957600080fd5b61048f6004808035906020019091905050610df1565b604051808467ffffffffffffffff1667ffffffffffffffff168152602001806020018381526020018281038252848181546001816001161561010002031660029004815260200191508054600181600116156101000203166002900480156105385780601f1061050d57610100808354040283529160200191610538565b820191906000526020600020905b81548152906001019060200180831161051b57829003601f168201915b505094505050505060405180910390f35b341561055457600080fd5b61055c610e3d565b6040518080602001828103825283818151815260200191508051906020019080838360005b8381101561059c578082015181840152602081019050610581565b50505050905090810190601f1680156105c95780820380516001836020036101000a031916815260200191505b509250505060405180910390f35b34156105e257600080fd5b610617600480803573ffffffffffffffffffffffffffffffffffffffff16906020019091908035906020019091905050610e76565b005b341561062457600080fd5b61063a6004808035906020019091905050610e9a565b604051808667ffffffffffffffff1667ffffffffffffffff168152602001806020018581526020018060200180602001848103845288818151815260200191508051906020019080838360005b838110156106a2578082015181840152602081019050610687565b50505050905090810190601f1680156106cf5780820380516001836020036101000a031916815260200191505b50848103835286818151815260200191508051906020019060200280838360005b8381101561070b5780820151818401526020810190506106f0565b50505050905001848103825285818151815260200191508051906020019060200280838360005b8381101561074d578082015181840152602081019050610732565b505050509050019850505050505050505060405180910390f35b341561077257600080fd5b6107a7600480803573ffffffffffffffffffffffffffffffffffffffff169060200190919080359060200190919050506110e3565b6040518082815260200191505060405180910390f35b34156107c857600080fd5b6108a1600480803590602001908201803590602001908080601f016020809104026020016040519081016040528093929190818152602001838380828437820191505050505050919080359060200190919080359060200190820180359060200190808060200260200160405190810160405280939291908181526020018383602002808284378201915050505050509190803590602001908201803590602001908080602002602001604051908101604052809392919081815260200183836020028082843782019150505050505091905050611114565b005b34156108ae57600080fd5b6108c46004808035906020019091905050611499565b604051808273ffffffffffffffffffffffffffffffffffffffff1673ffffffffffffffffffffffffffffffffffffffff16815260200191505060405180910390f35b341561091157600080fd5b61093060048080359060200190919080359060200190919050506114cc565b6040518082815260200191505060405180910390f35b341561095157600080fd5b6109596114fd565b6040518080602001828103825283818151815260200191508051906020019080838360005b8381101561099957808201518184015260208101905061097e565b50505050905090810190601f1680156109c65780820380516001836020036101000a031916815260200191505b509250505060405180910390f35b6109de3382611536565b15156109e957600080fd5b816006600083815260200190815260200160002060006101000a81548173ffffffffffffffffffffffffffffffffffffffff021916908373ffffffffffffffffffffffffffffffffffffffff1602179055505050565b60008080549050905090565b6000600180549050905090565b60056020528060005260406000206000915090505481565b600073ffffffffffffffffffffffffffffffffffffffff168273ffffffffffffffffffffffffffffffffffffffff1614151515610aac57600080fd5b610ab68382611536565b1515610ac157600080fd5b6006600082815260200190815260200160002060009054906101000a900473ffffffffffffffffffffffffffffffffffffffff1673ffffffffffffffffffffffffffffffffffffffff163373ffffffffffffffffffffffffffffffffffffffff16141515610b2e57600080fd5b610b398383836115a2565b505050565b610b46611978565b610b4e611978565b610b56611978565b610b5e611978565b6000610b68611978565b600080600360008a73ffffffffffffffffffffffffffffffffffffffff1673ffffffffffffffffffffffffffffffffffffffff168152602001908152602001600020805480602002602001604051908101604052809291908181526020018280548015610bf457602002820191906000526020600020905b815481526020019060010190808311610be0575b505050505095508551604051805910610c0a5750595b90808252806020026020018201604052509450600093505b8551841015610cc257610c4b8685815181101515610c3c57fe5b90602001906020020151611789565b9250600091505b8251821015610cb5578282815181101515610c6957fe5b906020019060200201519050610c7f8982611536565b15610ca8578484815181101515610c9257fe5b9060200190602002018051809190600101815250505b8180600101925050610c52565b8380600101945050610c22565b858597509750505050505050915091565b6000806002600084815260200190815260200160002060009054906101000a900473ffffffffffffffffffffffffffffffffffffffff169050600073ffffffffffffffffffffffffffffffffffffffff168173ffffffffffffffffffffffffffffffffffffffff1614151515610d4857600080fd5b80915050919050565b60026020528060005260406000206000915054906101000a900473ffffffffffffffffffffffffffffffffffffffff1681565b6000600560008373ffffffffffffffffffffffffffffffffffffffff1673ffffffffffffffffffffffffffffffffffffffff168152602001908152602001600020549050919050565b600181815481101515610ddc57fe5b90600052602060002090016000915090505481565b600081815481101515610e0057fe5b90600052602060002090600502016000915090508060000160009054906101000a900467ffffffffffffffff169080600101908060020154905083565b6040805190810160405280600981526020017f5269676874436f696e000000000000000000000000000000000000000000000081525081565b610e803382611536565b1515610e8b57600080fd5b610e963383836115a2565b5050565b6000610ea461198c565b6000610eae6119a0565b610eb6611978565b610ebe6119b4565b600087815481101515610ecd57fe5b906000526020600020906005020160a060405190810160405290816000820160009054906101000a900467ffffffffffffffff1667ffffffffffffffff1667ffffffffffffffff168152602001600182018054600181600116156101000203166002900480601f016020809104026020016040519081016040528092919081815260200182805460018160011615610100020316600290048015610fb25780601f10610f8757610100808354040283529160200191610fb2565b820191906000526020600020905b815481529060010190602001808311610f9557829003601f168201915b50505050508152602001600282015481526020016003820180548060200260200160405190810160405280929190818152602001828054801561104a57602002820191906000526020600020905b8160009054906101000a900473ffffffffffffffffffffffffffffffffffffffff1673ffffffffffffffffffffffffffffffffffffffff1681526020019060010190808311611000575b50505050508152602001600482018054806020026020016040519081016040528092919081815260200182805480156110a257602002820191906000526020600020905b81548152602001906001019080831161108e575b505050505081525050905080600001518160200151826040015183606001518460800151839350819150809050955095509550955095505091939590929450565b6003602052816000526040600020818154811015156110fe57fe5b9060005260206000209001600091509150505481565b61111c6119b4565b600080600080600060a0604051908101604052804267ffffffffffffffff1681526020018b81526020018a815260200189815260200188815250955060016000805480600101828161116e9190611a00565b9160005260206000209060050201600089909190915060008201518160000160006101000a81548167ffffffffffffffff021916908367ffffffffffffffff16021790555060208201518160010190805190602001906111cf929190611a32565b506040820151816002015560608201518160030190805190602001906111f6929190611ab2565b506080820151816004019080519060200190611213929190611b3c565b505050039450600093505b875184101561135757878481518110151561123557fe5b906020019060200201519250600360008473ffffffffffffffffffffffffffffffffffffffff1673ffffffffffffffffffffffffffffffffffffffff16815260200190815260200160002080548060010182816112929190611b89565b916000526020600020900160008790919091505550600091505b86848151811015156112ba57fe5b9060200190602002015182101561134a5760018080548060010182816112e09190611b89565b916000526020600020900160008890919091505503905060046000868152602001908152602001600020805480600101828161131c9190611b89565b91600052602060002090016000839091909150555061133d600084836115a2565b81806001019250506112ac565b838060010194505061121e565b7fe89359c3ee2f57a8387c3af0a1e675b72db822c2c9278164eacbcf01fd41c2948a8a8a8a60405180806020018581526020018060200180602001848103845288818151815260200191508051906020019080838360005b838110156113ca5780820151818401526020810190506113af565b50505050905090810190601f1680156113f75780820380516001836020036101000a031916815260200191505b50848103835286818151815260200191508051906020019060200280838360005b83811015611433578082015181840152602081019050611418565b50505050905001848103825285818151815260200191508051906020019060200280838360005b8381101561147557808201518184015260208101905061145a565b5050505090500197505050505050505060405180910390a150505050505050505050565b60066020528060005260406000206000915054906101000a900473ffffffffffffffffffffffffffffffffffffffff1681565b6004602052816000526040600020818154811015156114e757fe5b9060005260206000209001600091509150505481565b6040805190810160405280600381526020017f52434e000000000000000000000000000000000000000000000000000000000081525081565b60008273ffffffffffffffffffffffffffffffffffffffff166002600084815260200190815260200160002060009054906101000a900473ffffffffffffffffffffffffffffffffffffffff1673ffffffffffffffffffffffffffffffffffffffff1614905092915050565b6000600560008473ffffffffffffffffffffffffffffffffffffffff1673ffffffffffffffffffffffffffffffffffffffff16815260200190815260200160002060008154809291906001019190505550826002600084815260200190815260200160002060006101000a81548173ffffffffffffffffffffffffffffffffffffffff021916908373ffffffffffffffffffffffffffffffffffffffff160217905550600073ffffffffffffffffffffffffffffffffffffffff168473ffffffffffffffffffffffffffffffffffffffff1614151561178357600560008573ffffffffffffffffffffffffffffffffffffffff1673ffffffffffffffffffffffffffffffffffffffff16815260200190815260200160002060008154809291906001900391905055506006600083815260200190815260200160002060006101000a81549073ffffffffffffffffffffffffffffffffffffffff021916905561170a826117fa565b9050611716818461188c565b1561178257600360008473ffffffffffffffffffffffffffffffffffffffff1673ffffffffffffffffffffffffffffffffffffffff168152602001908152602001600020805480600101828161176c9190611b89565b9160005260206000209001600083909190915055505b5b50505050565b611791611978565b600460008381526020019081526020016000208054806020026020016040519081016040528092919081815260200182805480156117ee57602002820191906000526020600020905b8154815260200190600101908083116117da575b50505050509050919050565b60008073ffffffffffffffffffffffffffffffffffffffff166002600084815260200190815260200160002060009054906101000a900473ffffffffffffffffffffffffffffffffffffffff1673ffffffffffffffffffffffffffffffffffffffff161415151561186a57600080fd5b60018281548110151561187957fe5b9060005260206000209001549050919050565b6000611896611978565b6000600360008573ffffffffffffffffffffffffffffffffffffffff1673ffffffffffffffffffffffffffffffffffffffff16815260200190815260200160002080548060200260200160405190810160405280929190818152602001828054801561192157602002820191906000526020600020905b81548152602001906001019080831161190d575b50505050509150600090505b815181101561196b57818181518110151561194457fe5b9060200190602002015185141561195e5760009250611970565b808060010191505061192d565b600192505b505092915050565b602060405190810160405280600081525090565b602060405190810160405280600081525090565b602060405190810160405280600081525090565b60a060405190810160405280600067ffffffffffffffff1681526020016119d9611bb5565b8152602001600081526020016119ed611bc9565b81526020016119fa611bdd565b81525090565b815481835581811511611a2d57600502816005028360005260206000209182019101611a2c9190611bf1565b5b505050565b828054600181600116156101000203166002900490600052602060002090601f016020900481019282601f10611a7357805160ff1916838001178555611aa1565b82800160010185558215611aa1579182015b82811115611aa0578251825591602001919060010190611a85565b5b509050611aae9190611c63565b5090565b828054828255906000526020600020908101928215611b2b579160200282015b82811115611b2a5782518260006101000a81548173ffffffffffffffffffffffffffffffffffffffff021916908373ffffffffffffffffffffffffffffffffffffffff16021790555091602001919060010190611ad2565b5b509050611b389190611c88565b5090565b828054828255906000526020600020908101928215611b78579160200282015b82811115611b77578251825591602001919060010190611b5c565b5b509050611b859190611c63565b5090565b815481835581811511611bb057818360005260206000209182019101611baf9190611c63565b5b505050565b602060405190810160405280600081525090565b602060405190810160405280600081525090565b602060405190810160405280600081525090565b611c6091905b80821115611c5c57600080820160006101000a81549067ffffffffffffffff0219169055600182016000611c2b9190611ccb565b6002820160009055600382016000611c439190611d13565b600482016000611c539190611d34565b50600501611bf7565b5090565b90565b611c8591905b80821115611c81576000816000905550600101611c69565b5090565b90565b611cc891905b80821115611cc457600081816101000a81549073ffffffffffffffffffffffffffffffffffffffff021916905550600101611c8e565b5090565b90565b50805460018160011615610100020316600290046000825580601f10611cf15750611d10565b601f016020900490600052602060002090810190611d0f9190611c63565b5b50565b5080546000825590600052602060002090810190611d319190611c63565b50565b5080546000825590600052602060002090810190611d529190611c63565b505600a165627a7a72305820ff4d617f826095917d11f5522148e0082d3bb368d8e734e2d20f153b2e2ded9a0029",
  "source": "pragma solidity ^0.4.19;\n\nimport \"./WorkBase.sol\";\nimport \"./erc721.sol\";\n\n\ncontract TokenOwnership is ERC721, WorkBase {\n\n\n    //Name and symbol of the non-fungible token as defined in ERC721\n    string public constant NAME = \"RightCoin\";\n    string public constant SYMBOL = \"RCN\";\n\n    //External functions required for ERC-721 compliance\n    //\n    /*\n    Grant another address the right to transfer a specific token via TransferFrom()\n    _to is the address to be granted transfer approvals\n    Use address(0) to clear an approval\n    */\n    function approve(address _to, uint256 _tokenId) external {\n        //only the owner of a token can grant transfer approval for that token\n        require(_owns(msg.sender, _tokenId));\n\n        //register the approval (replacing any previous  approvals)\n        tokenIdToApproved[_tokenId] = _to;\n\n        //Must also emit Approval-Event\n    }\n\n    /*\n    Transfer a token owner by another address\n    The calling address must previously have beeen granted approval by the owner\n    _from is the address that owns the token\n    _to is the address that will take ownership of the token (can be the caller)\n    _tokenId is the ID of the token to be transferred\n    */\n    function transferFrom(address _from, address _to, uint256 _tokenId) external {\n        //check for non-zero-address 0x0\n        require(_to != address(0));\n\n        //Check for valid ownership\n        require(_owns(_from, _tokenId));\n\n        //check for valid transfer approval\n        require(msg.sender == tokenIdToApproved[_tokenId]);\n\n        _transferToken(_from, _to, _tokenId);\n    }\n\n    /*\n    transfers an rcn-token to another address\n    _to is the address of the recipient\n    _tokenId is the ID of the rcn-token to be transferred\n    */\n    function transfer(address _to, uint256 _tokenId) external {\n        require(_owns(msg.sender, _tokenId));\n\n        _transferToken(msg.sender, _to, _tokenId);\n    }\n\n    //returning the address that has currently ownership of a tokenId\n    function ownerOf(uint256 _tokenId) external view returns (address) {\n        address owner = tokenIdToOwner[_tokenId];\n\n        //throws exception if the address is 0x0\n        require(owner != address(0));\n        return (owner);\n    }\n\n    //public functions defined as in ERC721.sol\n    //\n    //returns the total supply of all circulating rcn-tokens\n    function totalSupply() public view returns (uint256) {\n        return rcnDB.length;\n    }\n\n    //returns the token count for a given address owns\n    function balanceOf(address _owner) public view returns (uint256) {\n        return addressToTokenCount[_owner];\n    }\n}\n",
  "sourcePath": "/Users/Hallvard/Documents/CopyrightsChain/contracts/TokenOwnership.sol",
  "compiler": {
    "name": "solc",
    "version": "0.4.19+commit.c4cbbb05.Emscripten.clang"
  },
  "schemaVersion": "2.0.0",
  "updatedAt": "2018-03-09T19:24:52.897Z"
}