{
  "contractName": "TokenOwnership",
  "abi": [
    {
      "constant": true,
      "inputs": [
        {
          "name": "",
          "type": "address"
        }
      ],
      "name": "addressToTokenCount",
      "outputs": [
        {
          "name": "",
          "type": "uint256"
        }
      ],
      "payable": false,
      "stateMutability": "view",
      "type": "function"
    },
    {
      "constant": true,
      "inputs": [
        {
          "name": "_address",
          "type": "address"
        }
      ],
      "name": "getWorkListWithTokenCountFromAddress",
      "outputs": [
        {
          "name": "",
          "type": "uint256[]"
        },
        {
          "name": "",
          "type": "uint256[]"
        }
      ],
      "payable": false,
      "stateMutability": "view",
      "type": "function"
    },
    {
      "constant": true,
      "inputs": [
        {
          "name": "",
          "type": "uint256"
        }
      ],
      "name": "tokenIdToOwner",
      "outputs": [
        {
          "name": "",
          "type": "address"
        }
      ],
      "payable": false,
      "stateMutability": "view",
      "type": "function"
    },
    {
      "constant": true,
      "inputs": [
        {
          "name": "",
          "type": "uint256"
        }
      ],
      "name": "rcnDB",
      "outputs": [
        {
          "name": "",
          "type": "uint256"
        }
      ],
      "payable": false,
      "stateMutability": "view",
      "type": "function"
    },
    {
      "constant": true,
      "inputs": [
        {
          "name": "",
          "type": "uint256"
        }
      ],
      "name": "workDB",
      "outputs": [
        {
          "name": "birthTime",
          "type": "uint64"
        },
        {
          "name": "typeOfWork",
          "type": "string"
        },
        {
          "name": "fingerprint",
          "type": "uint256"
        }
      ],
      "payable": false,
      "stateMutability": "view",
      "type": "function"
    },
    {
      "constant": true,
      "inputs": [],
      "name": "NAME",
      "outputs": [
        {
          "name": "",
          "type": "string"
        }
      ],
      "payable": false,
      "stateMutability": "view",
      "type": "function"
    },
    {
      "constant": true,
      "inputs": [
        {
          "name": "",
          "type": "address"
        },
        {
          "name": "",
          "type": "uint256"
        }
      ],
      "name": "addressToWorkList",
      "outputs": [
        {
          "name": "",
          "type": "uint256"
        }
      ],
      "payable": false,
      "stateMutability": "view",
      "type": "function"
    },
    {
      "constant": false,
      "inputs": [
        {
          "name": "_typeOfWork",
          "type": "string"
        },
        {
          "name": "_fingerprint",
          "type": "uint256"
        },
        {
          "name": "_contributors",
          "type": "address[]"
        },
        {
          "name": "_splits",
          "type": "uint256[]"
        }
      ],
      "name": "createWork",
      "outputs": [],
      "payable": false,
      "stateMutability": "nonpayable",
      "type": "function"
    },
    {
      "constant": true,
      "inputs": [
        {
          "name": "",
          "type": "uint256"
        }
      ],
      "name": "tokenIdToApproved",
      "outputs": [
        {
          "name": "",
          "type": "address"
        }
      ],
      "payable": false,
      "stateMutability": "view",
      "type": "function"
    },
    {
      "constant": true,
      "inputs": [
        {
          "name": "",
          "type": "uint256"
        },
        {
          "name": "",
          "type": "uint256"
        }
      ],
      "name": "workIdToTokenList",
      "outputs": [
        {
          "name": "",
          "type": "uint256"
        }
      ],
      "payable": false,
      "stateMutability": "view",
      "type": "function"
    },
    {
      "constant": true,
      "inputs": [],
      "name": "SYMBOL",
      "outputs": [
        {
          "name": "",
          "type": "string"
        }
      ],
      "payable": false,
      "stateMutability": "view",
      "type": "function"
    },
    {
      "anonymous": false,
      "inputs": [
        {
          "indexed": false,
          "name": "from",
          "type": "address"
        },
        {
          "indexed": false,
          "name": "to",
          "type": "address"
        },
        {
          "indexed": false,
          "name": "tokenId",
          "type": "uint256"
        }
      ],
      "name": "Transfer",
      "type": "event"
    },
    {
      "anonymous": false,
      "inputs": [
        {
          "indexed": false,
          "name": "owner",
          "type": "address"
        },
        {
          "indexed": false,
          "name": "approved",
          "type": "address"
        },
        {
          "indexed": false,
          "name": "tokenId",
          "type": "uint256"
        }
      ],
      "name": "Approval",
      "type": "event"
    },
    {
      "constant": false,
      "inputs": [
        {
          "name": "_to",
          "type": "address"
        },
        {
          "name": "_tokenId",
          "type": "uint256"
        }
      ],
      "name": "approve",
      "outputs": [],
      "payable": false,
      "stateMutability": "nonpayable",
      "type": "function"
    },
    {
      "constant": false,
      "inputs": [
        {
          "name": "_from",
          "type": "address"
        },
        {
          "name": "_to",
          "type": "address"
        },
        {
          "name": "_tokenId",
          "type": "uint256"
        }
      ],
      "name": "transferFrom",
      "outputs": [],
      "payable": false,
      "stateMutability": "nonpayable",
      "type": "function"
    },
    {
      "constant": false,
      "inputs": [
        {
          "name": "_to",
          "type": "address"
        },
        {
          "name": "_tokenId",
          "type": "uint256"
        }
      ],
      "name": "transfer",
      "outputs": [],
      "payable": false,
      "stateMutability": "nonpayable",
      "type": "function"
    },
    {
      "constant": true,
      "inputs": [
        {
          "name": "_tokenId",
          "type": "uint256"
        }
      ],
      "name": "ownerOf",
      "outputs": [
        {
          "name": "",
          "type": "address"
        }
      ],
      "payable": false,
      "stateMutability": "view",
      "type": "function"
    },
    {
      "constant": true,
      "inputs": [],
      "name": "totalSupply",
      "outputs": [
        {
          "name": "",
          "type": "uint256"
        }
      ],
      "payable": false,
      "stateMutability": "view",
      "type": "function"
    },
    {
      "constant": true,
      "inputs": [
        {
          "name": "_owner",
          "type": "address"
        }
      ],
      "name": "balanceOf",
      "outputs": [
        {
          "name": "",
          "type": "uint256"
        }
      ],
      "payable": false,
      "stateMutability": "view",
      "type": "function"
    }
  ],
  "bytecode": "0x6060604052341561000f57600080fd5b6118418061001e6000396000f3006060604052600436106100f1576000357c0100000000000000000000000000000000000000000000000000000000900463ffffffff168063095ea7b3146100f657806318160ddd1461013857806321f942851461016157806323b872dd146101ae5780634503222c1461020f5780636352211e146102e55780636e9e48ef1461034857806370a08231146103ab57806380d5a875146103f85780639d079d001461042f578063a3f4df7e1461050a578063a9059cbb14610598578063ca8b3eb2146105da578063d8e1609f14610630578063eb5653d714610716578063efbdc99214610779578063f76f8d78146107b9575b600080fd5b341561010157600080fd5b610136600480803573ffffffffffffffffffffffffffffffffffffffff16906020019091908035906020019091905050610847565b005b341561014357600080fd5b61014b6108b2565b6040518082815260200191505060405180910390f35b341561016c57600080fd5b610198600480803573ffffffffffffffffffffffffffffffffffffffff169060200190919050506108bf565b6040518082815260200191505060405180910390f35b34156101b957600080fd5b61020d600480803573ffffffffffffffffffffffffffffffffffffffff1690602001909190803573ffffffffffffffffffffffffffffffffffffffff169060200190919080359060200190919050506108d7565b005b341561021a57600080fd5b610246600480803573ffffffffffffffffffffffffffffffffffffffff169060200190919050506109a5565b604051808060200180602001838103835285818151815260200191508051906020019060200280838360005b8381101561028d578082015181840152602081019050610272565b50505050905001838103825284818151815260200191508051906020019060200280838360005b838110156102cf5780820151818401526020810190506102b4565b5050505090500194505050505060405180910390f35b34156102f057600080fd5b6103066004808035906020019091905050610b3a565b604051808273ffffffffffffffffffffffffffffffffffffffff1673ffffffffffffffffffffffffffffffffffffffff16815260200191505060405180910390f35b341561035357600080fd5b6103696004808035906020019091905050610bb8565b604051808273ffffffffffffffffffffffffffffffffffffffff1673ffffffffffffffffffffffffffffffffffffffff16815260200191505060405180910390f35b34156103b657600080fd5b6103e2600480803573ffffffffffffffffffffffffffffffffffffffff16906020019091905050610beb565b6040518082815260200191505060405180910390f35b341561040357600080fd5b6104196004808035906020019091905050610c34565b6040518082815260200191505060405180910390f35b341561043a57600080fd5b6104506004808035906020019091905050610c58565b604051808467ffffffffffffffff1667ffffffffffffffff168152602001806020018381526020018281038252848181546001816001161561010002031660029004815260200191508054600181600116156101000203166002900480156104f95780601f106104ce576101008083540402835291602001916104f9565b820191906000526020600020905b8154815290600101906020018083116104dc57829003601f168201915b505094505050505060405180910390f35b341561051557600080fd5b61051d610ca4565b6040518080602001828103825283818151815260200191508051906020019080838360005b8381101561055d578082015181840152602081019050610542565b50505050905090810190601f16801561058a5780820380516001836020036101000a031916815260200191505b509250505060405180910390f35b34156105a357600080fd5b6105d8600480803573ffffffffffffffffffffffffffffffffffffffff16906020019091908035906020019091905050610cdd565b005b34156105e557600080fd5b61061a600480803573ffffffffffffffffffffffffffffffffffffffff16906020019091908035906020019091905050610d01565b6040518082815260200191505060405180910390f35b341561063b57600080fd5b610714600480803590602001908201803590602001908080601f016020809104026020016040519081016040528093929190818152602001838380828437820191505050505050919080359060200190919080359060200190820180359060200190808060200260200160405190810160405280939291908181526020018383602002808284378201915050505050509190803590602001908201803590602001908080602002602001604051908101604052809392919081815260200183836020028082843782019150505050505091905050610d32565b005b341561072157600080fd5b6107376004808035906020019091905050610f81565b604051808273ffffffffffffffffffffffffffffffffffffffff1673ffffffffffffffffffffffffffffffffffffffff16815260200191505060405180910390f35b341561078457600080fd5b6107a36004808035906020019091908035906020019091905050610fb4565b6040518082815260200191505060405180910390f35b34156107c457600080fd5b6107cc610fe5565b6040518080602001828103825283818151815260200191508051906020019080838360005b8381101561080c5780820151818401526020810190506107f1565b50505050905090810190601f1680156108395780820380516001836020036101000a031916815260200191505b509250505060405180910390f35b610851338261101e565b151561085c57600080fd5b816006600083815260200190815260200160002060006101000a81548173ffffffffffffffffffffffffffffffffffffffff021916908373ffffffffffffffffffffffffffffffffffffffff1602179055505050565b6000600180549050905090565b60056020528060005260406000206000915090505481565b600073ffffffffffffffffffffffffffffffffffffffff168273ffffffffffffffffffffffffffffffffffffffff161415151561091357600080fd5b61091d838261101e565b151561092857600080fd5b6006600082815260200190815260200160002060009054906101000a900473ffffffffffffffffffffffffffffffffffffffff1673ffffffffffffffffffffffffffffffffffffffff163373ffffffffffffffffffffffffffffffffffffffff1614151561099557600080fd5b6109a083838361108a565b505050565b6109ad611460565b6109b5611460565b6109bd611460565b6109c5611460565b60006109cf611460565b600080600360008a73ffffffffffffffffffffffffffffffffffffffff1673ffffffffffffffffffffffffffffffffffffffff168152602001908152602001600020805480602002602001604051908101604052809291908181526020018280548015610a5b57602002820191906000526020600020905b815481526020019060010190808311610a47575b505050505095508551604051805910610a715750595b90808252806020026020018201604052509450600093505b8551841015610b2957610ab28685815181101515610aa357fe5b90602001906020020151611271565b9250600091505b8251821015610b1c578282815181101515610ad057fe5b906020019060200201519050610ae6898261101e565b15610b0f578484815181101515610af957fe5b9060200190602002018051809190600101815250505b8180600101925050610ab9565b8380600101945050610a89565b858597509750505050505050915091565b6000806002600084815260200190815260200160002060009054906101000a900473ffffffffffffffffffffffffffffffffffffffff169050600073ffffffffffffffffffffffffffffffffffffffff168173ffffffffffffffffffffffffffffffffffffffff1614151515610baf57600080fd5b80915050919050565b60026020528060005260406000206000915054906101000a900473ffffffffffffffffffffffffffffffffffffffff1681565b6000600560008373ffffffffffffffffffffffffffffffffffffffff1673ffffffffffffffffffffffffffffffffffffffff168152602001908152602001600020549050919050565b600181815481101515610c4357fe5b90600052602060002090016000915090505481565b600081815481101515610c6757fe5b90600052602060002090600502016000915090508060000160009054906101000a900467ffffffffffffffff169080600101908060020154905083565b6040805190810160405280600981526020017f5269676874436f696e000000000000000000000000000000000000000000000081525081565b610ce7338261101e565b1515610cf257600080fd5b610cfd33838361108a565b5050565b600360205281600052604060002081815481101515610d1c57fe5b9060005260206000209001600091509150505481565b610d3a611474565b600080600080600060a0604051908101604052804267ffffffffffffffff1681526020018b81526020018a8152602001898152602001888152509550600160008054806001018281610d8c91906114c0565b9160005260206000209060050201600089909190915060008201518160000160006101000a81548167ffffffffffffffff021916908367ffffffffffffffff1602179055506020820151816001019080519060200190610ded9291906114f2565b50604082015181600201556060820151816003019080519060200190610e14929190611572565b506080820151816004019080519060200190610e319291906115fc565b505050039450600093505b8751841015610f75578784815181101515610e5357fe5b906020019060200201519250600360008473ffffffffffffffffffffffffffffffffffffffff1673ffffffffffffffffffffffffffffffffffffffff1681526020019081526020016000208054806001018281610eb09190611649565b916000526020600020900160008790919091505550600091505b8684815181101515610ed857fe5b90602001906020020151821015610f68576001808054806001018281610efe9190611649565b9160005260206000209001600088909190915055039050600460008681526020019081526020016000208054806001018281610f3a9190611649565b916000526020600020900160008390919091505550610f5b6000848361108a565b8180600101925050610eca565b8380600101945050610e3c565b50505050505050505050565b60066020528060005260406000206000915054906101000a900473ffffffffffffffffffffffffffffffffffffffff1681565b600460205281600052604060002081815481101515610fcf57fe5b9060005260206000209001600091509150505481565b6040805190810160405280600381526020017f52434e000000000000000000000000000000000000000000000000000000000081525081565b60008273ffffffffffffffffffffffffffffffffffffffff166002600084815260200190815260200160002060009054906101000a900473ffffffffffffffffffffffffffffffffffffffff1673ffffffffffffffffffffffffffffffffffffffff1614905092915050565b6000600560008473ffffffffffffffffffffffffffffffffffffffff1673ffffffffffffffffffffffffffffffffffffffff16815260200190815260200160002060008154809291906001019190505550826002600084815260200190815260200160002060006101000a81548173ffffffffffffffffffffffffffffffffffffffff021916908373ffffffffffffffffffffffffffffffffffffffff160217905550600073ffffffffffffffffffffffffffffffffffffffff168473ffffffffffffffffffffffffffffffffffffffff1614151561126b57600560008573ffffffffffffffffffffffffffffffffffffffff1673ffffffffffffffffffffffffffffffffffffffff16815260200190815260200160002060008154809291906001900391905055506006600083815260200190815260200160002060006101000a81549073ffffffffffffffffffffffffffffffffffffffff02191690556111f2826112e2565b90506111fe8184611374565b1561126a57600360008473ffffffffffffffffffffffffffffffffffffffff1673ffffffffffffffffffffffffffffffffffffffff16815260200190815260200160002080548060010182816112549190611649565b9160005260206000209001600083909190915055505b5b50505050565b611279611460565b600460008381526020019081526020016000208054806020026020016040519081016040528092919081815260200182805480156112d657602002820191906000526020600020905b8154815260200190600101908083116112c2575b50505050509050919050565b60008073ffffffffffffffffffffffffffffffffffffffff166002600084815260200190815260200160002060009054906101000a900473ffffffffffffffffffffffffffffffffffffffff1673ffffffffffffffffffffffffffffffffffffffff161415151561135257600080fd5b60018281548110151561136157fe5b9060005260206000209001549050919050565b600061137e611460565b6000600360008573ffffffffffffffffffffffffffffffffffffffff1673ffffffffffffffffffffffffffffffffffffffff16815260200190815260200160002080548060200260200160405190810160405280929190818152602001828054801561140957602002820191906000526020600020905b8154815260200190600101908083116113f5575b50505050509150600090505b815181101561145357818181518110151561142c57fe5b906020019060200201518514156114465760009250611458565b8080600101915050611415565b600192505b505092915050565b602060405190810160405280600081525090565b60a060405190810160405280600067ffffffffffffffff168152602001611499611675565b8152602001600081526020016114ad611689565b81526020016114ba61169d565b81525090565b8154818355818115116114ed576005028160050283600052602060002091820191016114ec91906116b1565b5b505050565b828054600181600116156101000203166002900490600052602060002090601f016020900481019282601f1061153357805160ff1916838001178555611561565b82800160010185558215611561579182015b82811115611560578251825591602001919060010190611545565b5b50905061156e9190611723565b5090565b8280548282559060005260206000209081019282156115eb579160200282015b828111156115ea5782518260006101000a81548173ffffffffffffffffffffffffffffffffffffffff021916908373ffffffffffffffffffffffffffffffffffffffff16021790555091602001919060010190611592565b5b5090506115f89190611748565b5090565b828054828255906000526020600020908101928215611638579160200282015b8281111561163757825182559160200191906001019061161c565b5b5090506116459190611723565b5090565b8154818355818115116116705781836000526020600020918201910161166f9190611723565b5b505050565b602060405190810160405280600081525090565b602060405190810160405280600081525090565b602060405190810160405280600081525090565b61172091905b8082111561171c57600080820160006101000a81549067ffffffffffffffff02191690556001820160006116eb919061178b565b600282016000905560038201600061170391906117d3565b60048201600061171391906117f4565b506005016116b7565b5090565b90565b61174591905b80821115611741576000816000905550600101611729565b5090565b90565b61178891905b8082111561178457600081816101000a81549073ffffffffffffffffffffffffffffffffffffffff02191690555060010161174e565b5090565b90565b50805460018160011615610100020316600290046000825580601f106117b157506117d0565b601f0160209004906000526020600020908101906117cf9190611723565b5b50565b50805460008255906000526020600020908101906117f19190611723565b50565b50805460008255906000526020600020908101906118129190611723565b505600a165627a7a723058209bcfc8c72a8634cfb1199fef74faa1766e532a971487d7e9e69a98f0cc5361a70029",
  "source": "pragma solidity ^0.4.19;\n\nimport \"./WorkBase.sol\";\nimport \"./erc721.sol\";\n\n\ncontract TokenOwnership is ERC721, WorkBase {\n\n\n    //Name and symbol of the non-fungible token as defined in ERC721\n    string public constant NAME = \"RightCoin\";\n    string public constant SYMBOL = \"RCN\";\n\n    //External functions required for ERC-721 compliance\n    //\n    /*\n    Grant another address the right to transfer a specific token via TransferFrom()\n    _to is the address to be granted transfer approvals\n    Use address(0) to clear an approval\n    */\n    function approve(address _to, uint256 _tokenId) external {\n        //only the owner of a token can grant transfer approval for that token\n        require(_owns(msg.sender, _tokenId));\n\n        //register the approval (replacing any previous  approvals)\n        tokenIdToApproved[_tokenId] = _to;\n\n        //Must also emit Approval-Event\n    }\n\n    /*\n    Transfer a token owner by another address\n    The calling address must previously have beeen granted approval by the owner\n    _from is the address that owns the token\n    _to is the address that will take ownership of the token (can be the caller)\n    _tokenId is the ID of the token to be transferred\n    */\n    function transferFrom(address _from, address _to, uint256 _tokenId) external {\n        //check for non-zero-address 0x0\n        require(_to != address(0));\n\n        //Check for valid ownership\n        require(_owns(_from, _tokenId));\n\n        //check for valid transfer approval\n        require(msg.sender == tokenIdToApproved[_tokenId]);\n\n        _transferToken(_from, _to, _tokenId);\n    }\n\n    /*\n    transfers an rcn-token to another address\n    _to is the address of the recipient\n    _tokenId is the ID of the rcn-token to be transferred\n    */\n    function transfer(address _to, uint256 _tokenId) external {\n        require(_owns(msg.sender, _tokenId));\n\n        _transferToken(msg.sender, _to, _tokenId);\n    }\n\n    //returning the address that has currently ownership of a tokenId\n    function ownerOf(uint256 _tokenId) external view returns (address) {\n        address owner = tokenIdToOwner[_tokenId];\n\n        //throws exception if the address is 0x0\n        require(owner != address(0));\n        return (owner);\n    }\n\n    //public functions defined as in ERC721.sol\n    //\n    //returns the total supply of all circulating rcn-tokens\n    function totalSupply() public view returns (uint256) {\n        return rcnDB.length;\n    }\n\n    //returns the token count for a given address owns\n    function balanceOf(address _owner) public view returns (uint256) {\n        return addressToTokenCount[_owner];\n    }\n}\n",
  "sourcePath": "/Users/Hallvard/Documents/MasterProject/CopyrightsChain/contracts/TokenOwnership.sol",
  "compiler": {
    "name": "solc",
    "version": "0.4.19+commit.c4cbbb05.Emscripten.clang"
  },
  "schemaVersion": "2.0.0",
  "updatedAt": "2018-03-04T15:59:44.054Z"
}