{
  "contractName": "WorkBase",
  "abi": [
    {
      "constant": true,
      "inputs": [
        {
          "name": "",
          "type": "address"
        }
      ],
      "name": "addressToTokenCount",
      "outputs": [
        {
          "name": "",
          "type": "uint256"
        }
      ],
      "payable": false,
      "stateMutability": "view",
      "type": "function"
    },
    {
      "constant": true,
      "inputs": [
        {
          "name": "",
          "type": "uint256"
        }
      ],
      "name": "tokenIdToOwner",
      "outputs": [
        {
          "name": "",
          "type": "address"
        }
      ],
      "payable": false,
      "stateMutability": "view",
      "type": "function"
    },
    {
      "constant": true,
      "inputs": [
        {
          "name": "",
          "type": "uint256"
        }
      ],
      "name": "rcnDB",
      "outputs": [
        {
          "name": "",
          "type": "uint256"
        }
      ],
      "payable": false,
      "stateMutability": "view",
      "type": "function"
    },
    {
      "constant": true,
      "inputs": [
        {
          "name": "",
          "type": "uint256"
        }
      ],
      "name": "workDB",
      "outputs": [
        {
          "name": "birthTime",
          "type": "uint64"
        },
        {
          "name": "typeOfWork",
          "type": "string"
        },
        {
          "name": "fingerprint",
          "type": "uint256"
        }
      ],
      "payable": false,
      "stateMutability": "view",
      "type": "function"
    },
    {
      "constant": true,
      "inputs": [
        {
          "name": "",
          "type": "address"
        },
        {
          "name": "",
          "type": "uint256"
        }
      ],
      "name": "addressToWorkList",
      "outputs": [
        {
          "name": "",
          "type": "uint256"
        }
      ],
      "payable": false,
      "stateMutability": "view",
      "type": "function"
    },
    {
      "constant": true,
      "inputs": [
        {
          "name": "",
          "type": "uint256"
        }
      ],
      "name": "tokenIdToApproved",
      "outputs": [
        {
          "name": "",
          "type": "address"
        }
      ],
      "payable": false,
      "stateMutability": "view",
      "type": "function"
    },
    {
      "constant": true,
      "inputs": [
        {
          "name": "",
          "type": "uint256"
        },
        {
          "name": "",
          "type": "uint256"
        }
      ],
      "name": "workIdToTokenList",
      "outputs": [
        {
          "name": "",
          "type": "uint256"
        }
      ],
      "payable": false,
      "stateMutability": "view",
      "type": "function"
    },
    {
      "constant": false,
      "inputs": [
        {
          "name": "_typeOfWork",
          "type": "string"
        },
        {
          "name": "_fingerprint",
          "type": "uint256"
        },
        {
          "name": "_contributors",
          "type": "address[]"
        },
        {
          "name": "_splits",
          "type": "uint256[]"
        }
      ],
      "name": "createWork",
      "outputs": [],
      "payable": false,
      "stateMutability": "nonpayable",
      "type": "function"
    },
    {
      "constant": true,
      "inputs": [
        {
          "name": "_address",
          "type": "address"
        }
      ],
      "name": "getWorkListWithTokenCountFromAddress",
      "outputs": [
        {
          "name": "",
          "type": "uint256[]"
        },
        {
          "name": "",
          "type": "uint256[]"
        }
      ],
      "payable": false,
      "stateMutability": "view",
      "type": "function"
    }
  ],
  "bytecode": "0x6060604052341561000f57600080fd5b61126c8061001e6000396000f300606060405260043610610099576000357c0100000000000000000000000000000000000000000000000000000000900463ffffffff16806321f942851461009e5780634503222c146100eb5780636e9e48ef146101c157806380d5a875146102245780639d079d001461025b578063ca8b3eb214610336578063d8e1609f1461038c578063eb5653d714610472578063efbdc992146104d5575b600080fd5b34156100a957600080fd5b6100d5600480803573ffffffffffffffffffffffffffffffffffffffff16906020019091905050610515565b6040518082815260200191505060405180910390f35b34156100f657600080fd5b610122600480803573ffffffffffffffffffffffffffffffffffffffff1690602001909190505061052d565b604051808060200180602001838103835285818151815260200191508051906020019060200280838360005b8381101561016957808201518184015260208101905061014e565b50505050905001838103825284818151815260200191508051906020019060200280838360005b838110156101ab578082015181840152602081019050610190565b5050505090500194505050505060405180910390f35b34156101cc57600080fd5b6101e260048080359060200190919050506106c2565b604051808273ffffffffffffffffffffffffffffffffffffffff1673ffffffffffffffffffffffffffffffffffffffff16815260200191505060405180910390f35b341561022f57600080fd5b61024560048080359060200190919050506106f5565b6040518082815260200191505060405180910390f35b341561026657600080fd5b61027c6004808035906020019091905050610719565b604051808467ffffffffffffffff1667ffffffffffffffff168152602001806020018381526020018281038252848181546001816001161561010002031660029004815260200191508054600181600116156101000203166002900480156103255780601f106102fa57610100808354040283529160200191610325565b820191906000526020600020905b81548152906001019060200180831161030857829003601f168201915b505094505050505060405180910390f35b341561034157600080fd5b610376600480803573ffffffffffffffffffffffffffffffffffffffff16906020019091908035906020019091905050610765565b6040518082815260200191505060405180910390f35b341561039757600080fd5b610470600480803590602001908201803590602001908080601f016020809104026020016040519081016040528093929190818152602001838380828437820191505050505050919080359060200190919080359060200190820180359060200190808060200260200160405190810160405280939291908181526020018383602002808284378201915050505050509190803590602001908201803590602001908080602002602001604051908101604052809392919081815260200183836020028082843782019150505050505091905050610796565b005b341561047d57600080fd5b61049360048080359060200190919050506109e5565b604051808273ffffffffffffffffffffffffffffffffffffffff1673ffffffffffffffffffffffffffffffffffffffff16815260200191505060405180910390f35b34156104e057600080fd5b6104ff6004808035906020019091908035906020019091905050610a18565b6040518082815260200191505060405180910390f35b60056020528060005260406000206000915090505481565b610535610e8b565b61053d610e8b565b610545610e8b565b61054d610e8b565b6000610557610e8b565b600080600360008a73ffffffffffffffffffffffffffffffffffffffff1673ffffffffffffffffffffffffffffffffffffffff1681526020019081526020016000208054806020026020016040519081016040528092919081815260200182805480156105e357602002820191906000526020600020905b8154815260200190600101908083116105cf575b5050505050955085516040518059106105f95750595b90808252806020026020018201604052509450600093505b85518410156106b15761063a868581518110151561062b57fe5b90602001906020020151610a49565b9250600091505b82518210156106a457828281518110151561065857fe5b90602001906020020151905061066e8982610aba565b1561069757848481518110151561068157fe5b9060200190602002018051809190600101815250505b8180600101925050610641565b8380600101945050610611565b858597509750505050505050915091565b60026020528060005260406000206000915054906101000a900473ffffffffffffffffffffffffffffffffffffffff1681565b60018181548110151561070457fe5b90600052602060002090016000915090505481565b60008181548110151561072857fe5b90600052602060002090600502016000915090508060000160009054906101000a900467ffffffffffffffff169080600101908060020154905083565b60036020528160005260406000208181548110151561078057fe5b9060005260206000209001600091509150505481565b61079e610e9f565b600080600080600060a0604051908101604052804267ffffffffffffffff1681526020018b81526020018a81526020018981526020018881525095506001600080548060010182816107f09190610eeb565b9160005260206000209060050201600089909190915060008201518160000160006101000a81548167ffffffffffffffff021916908367ffffffffffffffff1602179055506020820151816001019080519060200190610851929190610f1d565b50604082015181600201556060820151816003019080519060200190610878929190610f9d565b506080820151816004019080519060200190610895929190611027565b505050039450600093505b87518410156109d95787848151811015156108b757fe5b906020019060200201519250600360008473ffffffffffffffffffffffffffffffffffffffff1673ffffffffffffffffffffffffffffffffffffffff16815260200190815260200160002080548060010182816109149190611074565b916000526020600020900160008790919091505550600091505b868481518110151561093c57fe5b906020019060200201518210156109cc5760018080548060010182816109629190611074565b916000526020600020900160008890919091505503905060046000868152602001908152602001600020805480600101828161099e9190611074565b9160005260206000209001600083909190915055506109bf60008483610b26565b818060010192505061092e565b83806001019450506108a0565b50505050505050505050565b60066020528060005260406000206000915054906101000a900473ffffffffffffffffffffffffffffffffffffffff1681565b600460205281600052604060002081815481101515610a3357fe5b9060005260206000209001600091509150505481565b610a51610e8b565b60046000838152602001908152602001600020805480602002602001604051908101604052809291908181526020018280548015610aae57602002820191906000526020600020905b815481526020019060010190808311610a9a575b50505050509050919050565b60008273ffffffffffffffffffffffffffffffffffffffff166002600084815260200190815260200160002060009054906101000a900473ffffffffffffffffffffffffffffffffffffffff1673ffffffffffffffffffffffffffffffffffffffff1614905092915050565b6000600560008473ffffffffffffffffffffffffffffffffffffffff1673ffffffffffffffffffffffffffffffffffffffff16815260200190815260200160002060008154809291906001019190505550826002600084815260200190815260200160002060006101000a81548173ffffffffffffffffffffffffffffffffffffffff021916908373ffffffffffffffffffffffffffffffffffffffff160217905550600073ffffffffffffffffffffffffffffffffffffffff168473ffffffffffffffffffffffffffffffffffffffff16141515610d0757600560008573ffffffffffffffffffffffffffffffffffffffff1673ffffffffffffffffffffffffffffffffffffffff16815260200190815260200160002060008154809291906001900391905055506006600083815260200190815260200160002060006101000a81549073ffffffffffffffffffffffffffffffffffffffff0219169055610c8e82610d0d565b9050610c9a8184610d9f565b15610d0657600360008473ffffffffffffffffffffffffffffffffffffffff1673ffffffffffffffffffffffffffffffffffffffff1681526020019081526020016000208054806001018281610cf09190611074565b9160005260206000209001600083909190915055505b5b50505050565b60008073ffffffffffffffffffffffffffffffffffffffff166002600084815260200190815260200160002060009054906101000a900473ffffffffffffffffffffffffffffffffffffffff1673ffffffffffffffffffffffffffffffffffffffff1614151515610d7d57600080fd5b600182815481101515610d8c57fe5b9060005260206000209001549050919050565b6000610da9610e8b565b6000600360008573ffffffffffffffffffffffffffffffffffffffff1673ffffffffffffffffffffffffffffffffffffffff168152602001908152602001600020805480602002602001604051908101604052809291908181526020018280548015610e3457602002820191906000526020600020905b815481526020019060010190808311610e20575b50505050509150600090505b8151811015610e7e578181815181101515610e5757fe5b90602001906020020151851415610e715760009250610e83565b8080600101915050610e40565b600192505b505092915050565b602060405190810160405280600081525090565b60a060405190810160405280600067ffffffffffffffff168152602001610ec46110a0565b815260200160008152602001610ed86110b4565b8152602001610ee56110c8565b81525090565b815481835581811511610f1857600502816005028360005260206000209182019101610f1791906110dc565b5b505050565b828054600181600116156101000203166002900490600052602060002090601f016020900481019282601f10610f5e57805160ff1916838001178555610f8c565b82800160010185558215610f8c579182015b82811115610f8b578251825591602001919060010190610f70565b5b509050610f99919061114e565b5090565b828054828255906000526020600020908101928215611016579160200282015b828111156110155782518260006101000a81548173ffffffffffffffffffffffffffffffffffffffff021916908373ffffffffffffffffffffffffffffffffffffffff16021790555091602001919060010190610fbd565b5b5090506110239190611173565b5090565b828054828255906000526020600020908101928215611063579160200282015b82811115611062578251825591602001919060010190611047565b5b509050611070919061114e565b5090565b81548183558181151161109b5781836000526020600020918201910161109a919061114e565b5b505050565b602060405190810160405280600081525090565b602060405190810160405280600081525090565b602060405190810160405280600081525090565b61114b91905b8082111561114757600080820160006101000a81549067ffffffffffffffff021916905560018201600061111691906111b6565b600282016000905560038201600061112e91906111fe565b60048201600061113e919061121f565b506005016110e2565b5090565b90565b61117091905b8082111561116c576000816000905550600101611154565b5090565b90565b6111b391905b808211156111af57600081816101000a81549073ffffffffffffffffffffffffffffffffffffffff021916905550600101611179565b5090565b90565b50805460018160011615610100020316600290046000825580601f106111dc57506111fb565b601f0160209004906000526020600020908101906111fa919061114e565b5b50565b508054600082559060005260206000209081019061121c919061114e565b50565b508054600082559060005260206000209081019061123d919061114e565b505600a165627a7a72305820993ffb1bb5547649c314783776366f2b6756471fd5c4b26e90fcf3e20e61bf450029",
  "source": "pragma solidity ^0.4.0;\n\n\ncontract WorkBase {\n//every musical work is represented by a struct with a set of variables\n    struct Work {\n\n      //timestamp from the block when this work was registered\n        uint64 birthTime;\n\n        //description of work, i.e \"musical composition\" or \"sound recording of blablabla\"\n        string typeOfWork;\n\n        //the Keccak-256 hash fingerprint of the uploaded file\n        uint fingerprint;\n\n        //list of contributors address\n        address[] contributors;\n\n        //list of percentage of owned works\n        uint[] splits;\n\n    }\n\n    //An array containing the work struct for all registered works in existence.\n    //the index of the struct in the array is the ID of the work\n    Work[] public workDB;\n\n    //a master database of all issued copyright tokens\n    //whenever a work is created, 100 copyright tokens are created and added to this array,\n    //with their index in the array becoming the copyright token's ID.\n    uint[] public rcnDB;\n\n    // mapping from tokenID to the address of its owner\n    mapping(uint => address) public tokenIdToOwner;\n\n    //mapping from address to an array of workIds\n    mapping(address => uint[]) public addressToWorkList;\n\n    //mapping from workId to array of associated tokenIDs\n    mapping(uint => uint[]) public workIdToTokenList;\n\n    //mapping from owner address to the count of tokens that address owns\n    mapping(address => uint) public addressToTokenCount;\n\n    //mapping from tokenId to an address that has been approved to call transferFrom()\n    //each token can only have one approved address for transfer at any time.\n    mapping (uint => address) public tokenIdToApproved;\n\n    //public function for registering a work\n    //This will update the worklist of all contributors and assign rcn-tokens according to the _splits[] argument\n    function createWork (string _typeOfWork, uint _fingerprint, address[] _contributors, uint[] _splits) public {\n        //need to validate all inputs!\n        //A work struct with info about the work. PS: this data is permanent\n        Work memory _newWork = Work({\n            birthTime: uint64(now),\n            typeOfWork: _typeOfWork,\n            fingerprint: _fingerprint,\n            contributors: _contributors,\n            splits: _splits\n        });\n        //we push the newly created work-struct to the workDB\n        //Its ID (index in the workDB array) is assigned the newWorkId variable\n        uint _newWorkId = workDB.push(_newWork) - 1;\n\n        //update each contributors worklist\n        for (uint i= 0; i < _contributors.length; i++) {\n            address _contributor = _contributors[i];\n\n            //update mapping from contributors to their worklist\n            addressToWorkList[_contributor].push(_newWorkId);\n\n            //issue rcn-tokens to involved contributors\n            for (uint j= 0; j < _splits[i]; j++) {\n\n                //create new token and push it to the master rcnDB\n                uint _newTokenId = rcnDB.push(_newWorkId) - 1;\n\n                //Fill the tokenID-list in workIdToTokenList\n                workIdToTokenList[_newWorkId].push(_newTokenId);\n\n                //call the internal transfer function for assigning ownership\n                _transferToken(0, _contributor, _newTokenId);\n            }\n        }\n    }\n\n    function getWorkListWithTokenCountFromAddress(address _address) public view returns(uint[], uint[]) {\n        //list containing all works associated with an address\n        uint[] memory _workList = addressToWorkList[_address];\n\n        //an empty array of uints with size equal to _worklist\n        uint[] memory _amountList = new uint[](_workList.length);\n\n        for (uint i = 0; i < _workList.length; i++) {\n            //list of all tokens associated with workId\n            uint[] memory _tokensFromWorkId = getTokenListFromWorkId(_workList[i]);\n\n            for (uint j = 0; j < _tokensFromWorkId.length; j++) {\n\n                uint _tokenId = _tokensFromWorkId[j];\n\n                if (_owns(_address, _tokenId)) {\n                    _amountList[i]++;\n                }\n            }\n        }\n\n        return (_workList, _amountList);\n    }\n\n    //INTERNAL functions used by this and child-contracts\n    //\n    //function returning a list of tokenIds associated with a _workId\n    function getTokenListFromWorkId (uint _workId) internal view returns (uint[]) {\n        return workIdToTokenList[_workId];\n    }\n\n    //function returning the workId associated with any _tokenId\n    function getWorkIdfromTokenId(uint _tokenId) internal view returns (uint) {\n        //throws exception if _tokenId is not valid (not owned by anyone)\n        require(tokenIdToOwner[_tokenId] != address(0));\n\n        return rcnDB[_tokenId];\n    }\n\n    //function for checking if a given _workId exists in the worklist associated with an address\n    function _workIdNotInWorkList(uint _workId, address _address) internal view returns(bool) {\n        uint[] memory _workList = addressToWorkList[_address];\n        for (uint i = 0; i < _workList.length; i++) {\n            if (_workId == _workList[i]) {\n                return false;\n            }\n        }\n        return true;\n    }\n\n    //function for checking if a given address has ownership of a given tokenId\n    function _owns(address _address, uint _tokenId) internal view returns(bool) {\n        return (tokenIdToOwner[_tokenId] == _address);\n    }\n\n    //internal function for token ownership assignment\n    //used in createWork() and transfer()\n    function _transferToken(address _from, address _to, uint _tokenId) internal {\n        //increase the token count associated with the _to address\n        addressToTokenCount[_to]++;\n\n        //for \"newborn tokens\", we insert the (token=>address) key-value pair in the tokenIdToOwner mapping\n        //for existing tokens, we update the address-value of a tokenID-key to the _to address\n        tokenIdToOwner[_tokenId] = _to;\n\n        //For existing tokens, the _from address is not 0x0\n        //This is the case in transer(), and we have to to more checks and operations\n        if (_from != address(0)) {\n\n            addressToTokenCount[_from]--;\n\n            //clear approved transfer allowance for the token\n            delete tokenIdToApproved[_tokenId];\n\n            //get the workId associated with the _tokenId\n            uint _workId = getWorkIdfromTokenId(_tokenId);\n\n            //check if _to address already has the workId in his workList\n            if (_workIdNotInWorkList(_workId, _to)) {\n\n                //add the workId to worklist associated with the _to address\n                addressToWorkList[_to].push(_workId);\n            }\n        }\n        //Must also emit the Transfer-event\n    }\n}\n",
  "sourcePath": "/Users/Hallvard/Documents/MasterProject/CopyrightsChain/contracts/WorkBase.sol",
  "compiler": {
    "name": "solc",
    "version": "0.4.19+commit.c4cbbb05.Emscripten.clang"
  },
  "schemaVersion": "2.0.0",
  "updatedAt": "2018-03-04T15:59:24.491Z"
}