{
  "contractName": "WorkBase",
  "abi": [
    {
      "constant": true,
      "inputs": [
        {
          "name": "",
          "type": "address"
        }
      ],
      "name": "addressToTokenCount",
      "outputs": [
        {
          "name": "",
          "type": "uint256"
        }
      ],
      "payable": false,
      "stateMutability": "view",
      "type": "function"
    },
    {
      "constant": true,
      "inputs": [
        {
          "name": "",
          "type": "uint256"
        }
      ],
      "name": "tokenIdToOwner",
      "outputs": [
        {
          "name": "",
          "type": "address"
        }
      ],
      "payable": false,
      "stateMutability": "view",
      "type": "function"
    },
    {
      "constant": true,
      "inputs": [
        {
          "name": "",
          "type": "uint256"
        }
      ],
      "name": "rcnDB",
      "outputs": [
        {
          "name": "",
          "type": "uint256"
        }
      ],
      "payable": false,
      "stateMutability": "view",
      "type": "function"
    },
    {
      "constant": true,
      "inputs": [
        {
          "name": "",
          "type": "uint256"
        }
      ],
      "name": "workDB",
      "outputs": [
        {
          "name": "birthTime",
          "type": "uint64"
        },
        {
          "name": "typeOfWork",
          "type": "string"
        },
        {
          "name": "fingerprint",
          "type": "uint256"
        }
      ],
      "payable": false,
      "stateMutability": "view",
      "type": "function"
    },
    {
      "constant": true,
      "inputs": [
        {
          "name": "",
          "type": "address"
        },
        {
          "name": "",
          "type": "uint256"
        }
      ],
      "name": "addressToWorkList",
      "outputs": [
        {
          "name": "",
          "type": "uint256"
        }
      ],
      "payable": false,
      "stateMutability": "view",
      "type": "function"
    },
    {
      "constant": true,
      "inputs": [
        {
          "name": "",
          "type": "uint256"
        }
      ],
      "name": "tokenIdToApproved",
      "outputs": [
        {
          "name": "",
          "type": "address"
        }
      ],
      "payable": false,
      "stateMutability": "view",
      "type": "function"
    },
    {
      "constant": true,
      "inputs": [
        {
          "name": "",
          "type": "uint256"
        },
        {
          "name": "",
          "type": "uint256"
        }
      ],
      "name": "workIdToTokenList",
      "outputs": [
        {
          "name": "",
          "type": "uint256"
        }
      ],
      "payable": false,
      "stateMutability": "view",
      "type": "function"
    },
    {
      "anonymous": false,
      "inputs": [
        {
          "indexed": false,
          "name": "typeOfWorkCreate",
          "type": "string"
        },
        {
          "indexed": false,
          "name": "fingerprintCreate",
          "type": "uint256"
        },
        {
          "indexed": false,
          "name": "contributorsCreate",
          "type": "address[]"
        },
        {
          "indexed": false,
          "name": "splitsCreate",
          "type": "uint256[]"
        }
      ],
      "name": "Create",
      "type": "event"
    },
    {
      "constant": false,
      "inputs": [
        {
          "name": "_typeOfWork",
          "type": "string"
        },
        {
          "name": "_fingerprint",
          "type": "uint256"
        },
        {
          "name": "_contributors",
          "type": "address[]"
        },
        {
          "name": "_splits",
          "type": "uint256[]"
        }
      ],
      "name": "createWork",
      "outputs": [],
      "payable": false,
      "stateMutability": "nonpayable",
      "type": "function"
    },
    {
      "constant": true,
      "inputs": [
        {
          "name": "_address",
          "type": "address"
        }
      ],
      "name": "getWorkListWithTokenCountFromAddress",
      "outputs": [
        {
          "name": "workId",
          "type": "uint256[]"
        },
        {
          "name": "numberOfTokens",
          "type": "uint256[]"
        }
      ],
      "payable": false,
      "stateMutability": "view",
      "type": "function"
    },
    {
      "constant": true,
      "inputs": [],
      "name": "getLengthOfWorkDataBase",
      "outputs": [
        {
          "name": "",
          "type": "uint256"
        }
      ],
      "payable": false,
      "stateMutability": "view",
      "type": "function"
    },
    {
      "constant": true,
      "inputs": [
        {
          "name": "_id",
          "type": "uint256"
        }
      ],
      "name": "getWorkById",
      "outputs": [
        {
          "name": "",
          "type": "uint64"
        },
        {
          "name": "",
          "type": "string"
        },
        {
          "name": "",
          "type": "uint256"
        },
        {
          "name": "",
          "type": "address[]"
        },
        {
          "name": "",
          "type": "uint256[]"
        }
      ],
      "payable": false,
      "stateMutability": "view",
      "type": "function"
    },
    {
      "constant": true,
      "inputs": [
        {
          "name": "_workId",
          "type": "uint256"
        },
        {
          "name": "_address",
          "type": "address"
        }
      ],
      "name": "getTokensFromWorkIdAndAddress",
      "outputs": [
        {
          "name": "tokenIdList",
          "type": "uint256[]"
        }
      ],
      "payable": false,
      "stateMutability": "view",
      "type": "function"
    }
  ],
  "bytecode": "0x6060604052341561000f57600080fd5b6119728061001e6000396000f3006060604052600436106100ba576000357c0100000000000000000000000000000000000000000000000000000000900463ffffffff168063143f3706146100bf57806321f94285146100e85780634503222c146101355780636e9e48ef1461020b57806380d5a8751461026e5780639d079d00146102a5578063bdf1fcc914610380578063ca8b3eb2146104ce578063d707bb4c14610524578063d8e1609f146105bb578063eb5653d7146106a1578063efbdc99214610704575b600080fd5b34156100ca57600080fd5b6100d2610744565b6040518082815260200191505060405180910390f35b34156100f357600080fd5b61011f600480803573ffffffffffffffffffffffffffffffffffffffff16906020019091905050610750565b6040518082815260200191505060405180910390f35b341561014057600080fd5b61016c600480803573ffffffffffffffffffffffffffffffffffffffff16906020019091905050610768565b604051808060200180602001838103835285818151815260200191508051906020019060200280838360005b838110156101b3578082015181840152602081019050610198565b50505050905001838103825284818151815260200191508051906020019060200280838360005b838110156101f55780820151818401526020810190506101da565b5050505090500194505050505060405180910390f35b341561021657600080fd5b61022c60048080359060200190919050506108f8565b604051808273ffffffffffffffffffffffffffffffffffffffff1673ffffffffffffffffffffffffffffffffffffffff16815260200191505060405180910390f35b341561027957600080fd5b61028f600480803590602001909190505061092b565b6040518082815260200191505060405180910390f35b34156102b057600080fd5b6102c6600480803590602001909190505061094f565b604051808467ffffffffffffffff1667ffffffffffffffff1681526020018060200183815260200182810382528481815460018160011615610100020316600290048152602001915080546001816001161561010002031660029004801561036f5780601f106103445761010080835404028352916020019161036f565b820191906000526020600020905b81548152906001019060200180831161035257829003601f168201915b505094505050505060405180910390f35b341561038b57600080fd5b6103a1600480803590602001909190505061099b565b604051808667ffffffffffffffff1667ffffffffffffffff168152602001806020018581526020018060200180602001848103845288818151815260200191508051906020019080838360005b838110156104095780820151818401526020810190506103ee565b50505050905090810190601f1680156104365780820380516001836020036101000a031916815260200191505b50848103835286818151815260200191508051906020019060200280838360005b83811015610472578082015181840152602081019050610457565b50505050905001848103825285818151815260200191508051906020019060200280838360005b838110156104b4578082015181840152602081019050610499565b505050509050019850505050505050505060405180910390f35b34156104d957600080fd5b61050e600480803573ffffffffffffffffffffffffffffffffffffffff16906020019091908035906020019091905050610be4565b6040518082815260200191505060405180910390f35b341561052f57600080fd5b610564600480803590602001909190803573ffffffffffffffffffffffffffffffffffffffff16906020019091905050610c15565b6040518080602001828103825283818151815260200191508051906020019060200280838360005b838110156105a757808201518184015260208101905061058c565b505050509050019250505060405180910390f35b34156105c657600080fd5b61069f600480803590602001908201803590602001908080601f016020809104026020016040519081016040528093929190818152602001838380828437820191505050505050919080359060200190919080359060200190820180359060200190808060200260200160405190810160405280939291908181526020018383602002808284378201915050505050509190803590602001908201803590602001908080602002602001604051908101604052809392919081815260200183836020028082843782019150505050505091905050610d3e565b005b34156106ac57600080fd5b6106c260048080359060200190919050506110c3565b604051808273ffffffffffffffffffffffffffffffffffffffff1673ffffffffffffffffffffffffffffffffffffffff16815260200191505060405180910390f35b341561070f57600080fd5b61072e60048080359060200190919080359060200190919050506110f6565b6040518082815260200191505060405180910390f35b60008080549050905090565b60056020528060005260406000206000915090505481565b610770611569565b610778611569565b610780611569565b610788611569565b6000610792611569565b6000600360008973ffffffffffffffffffffffffffffffffffffffff1673ffffffffffffffffffffffffffffffffffffffff16815260200190815260200160002080548060200260200160405190810160405280929190818152602001828054801561081d57602002820191906000526020600020905b815481526020019060010190808311610809575b5050505050945084516040518059106108335750595b90808252806020026020018201604052509350600092505b84518310156108e857610874858481518110151561086557fe5b90602001906020020151611127565b9150600090505b81518110156108db576108a588838381518110151561089657fe5b90602001906020020151611198565b156108ce5783838151811015156108b857fe5b9060200190602002018051809190600101815250505b808060010191505061087b565b828060010193505061084b565b8484965096505050505050915091565b60026020528060005260406000206000915054906101000a900473ffffffffffffffffffffffffffffffffffffffff1681565b60018181548110151561093a57fe5b90600052602060002090016000915090505481565b60008181548110151561095e57fe5b90600052602060002090600502016000915090508060000160009054906101000a900467ffffffffffffffff169080600101908060020154905083565b60006109a561157d565b60006109af611591565b6109b7611569565b6109bf6115a5565b6000878154811015156109ce57fe5b906000526020600020906005020160a060405190810160405290816000820160009054906101000a900467ffffffffffffffff1667ffffffffffffffff1667ffffffffffffffff168152602001600182018054600181600116156101000203166002900480601f016020809104026020016040519081016040528092919081815260200182805460018160011615610100020316600290048015610ab35780601f10610a8857610100808354040283529160200191610ab3565b820191906000526020600020905b815481529060010190602001808311610a9657829003601f168201915b505050505081526020016002820154815260200160038201805480602002602001604051908101604052809291908181526020018280548015610b4b57602002820191906000526020600020905b8160009054906101000a900473ffffffffffffffffffffffffffffffffffffffff1673ffffffffffffffffffffffffffffffffffffffff1681526020019060010190808311610b01575b5050505050815260200160048201805480602002602001604051908101604052809291908181526020018280548015610ba357602002820191906000526020600020905b815481526020019060010190808311610b8f575b505050505081525050905080600001518160200151826040015183606001518460800151839350819150809050955095509550955095505091939590929450565b600360205281600052604060002081815481101515610bff57fe5b9060005260206000209001600091509150505481565b610c1d611569565b610c25611569565b600080610c30611569565b600080610c3c89611127565b955060009450600093505b8551841015610c8c57610c71888786815181101515610c6257fe5b90602001906020020151611198565b15610c7f5784806001019550505b8380600101945050610c47565b84604051805910610c9a5750595b9080825280602002602001820160405250925060009150600090505b8551811015610d2f57610ce0888783815181101515610cd157fe5b90602001906020020151611198565b15610d22578581815181101515610cf357fe5b906020019060200201518383815181101515610d0b57fe5b906020019060200201818152505081806001019250505b8080600101915050610cb6565b82965050505050505092915050565b610d466115a5565b600080600080600060a0604051908101604052804267ffffffffffffffff1681526020018b81526020018a8152602001898152602001888152509550600160008054806001018281610d9891906115f1565b9160005260206000209060050201600089909190915060008201518160000160006101000a81548167ffffffffffffffff021916908367ffffffffffffffff1602179055506020820151816001019080519060200190610df9929190611623565b50604082015181600201556060820151816003019080519060200190610e209291906116a3565b506080820151816004019080519060200190610e3d92919061172d565b505050039450600093505b8751841015610f81578784815181101515610e5f57fe5b906020019060200201519250600360008473ffffffffffffffffffffffffffffffffffffffff1673ffffffffffffffffffffffffffffffffffffffff1681526020019081526020016000208054806001018281610ebc919061177a565b916000526020600020900160008790919091505550600091505b8684815181101515610ee457fe5b90602001906020020151821015610f74576001808054806001018281610f0a919061177a565b9160005260206000209001600088909190915055039050600460008681526020019081526020016000208054806001018281610f46919061177a565b916000526020600020900160008390919091505550610f6760008483611204565b8180600101925050610ed6565b8380600101945050610e48565b7fe89359c3ee2f57a8387c3af0a1e675b72db822c2c9278164eacbcf01fd41c2948a8a8a8a60405180806020018581526020018060200180602001848103845288818151815260200191508051906020019080838360005b83811015610ff4578082015181840152602081019050610fd9565b50505050905090810190601f1680156110215780820380516001836020036101000a031916815260200191505b50848103835286818151815260200191508051906020019060200280838360005b8381101561105d578082015181840152602081019050611042565b50505050905001848103825285818151815260200191508051906020019060200280838360005b8381101561109f578082015181840152602081019050611084565b5050505090500197505050505050505060405180910390a150505050505050505050565b60066020528060005260406000206000915054906101000a900473ffffffffffffffffffffffffffffffffffffffff1681565b60046020528160005260406000208181548110151561111157fe5b9060005260206000209001600091509150505481565b61112f611569565b6004600083815260200190815260200160002080548060200260200160405190810160405280929190818152602001828054801561118c57602002820191906000526020600020905b815481526020019060010190808311611178575b50505050509050919050565b60008273ffffffffffffffffffffffffffffffffffffffff166002600084815260200190815260200160002060009054906101000a900473ffffffffffffffffffffffffffffffffffffffff1673ffffffffffffffffffffffffffffffffffffffff1614905092915050565b6000600560008473ffffffffffffffffffffffffffffffffffffffff1673ffffffffffffffffffffffffffffffffffffffff16815260200190815260200160002060008154809291906001019190505550826002600084815260200190815260200160002060006101000a81548173ffffffffffffffffffffffffffffffffffffffff021916908373ffffffffffffffffffffffffffffffffffffffff160217905550600073ffffffffffffffffffffffffffffffffffffffff168473ffffffffffffffffffffffffffffffffffffffff161415156113e557600560008573ffffffffffffffffffffffffffffffffffffffff1673ffffffffffffffffffffffffffffffffffffffff16815260200190815260200160002060008154809291906001900391905055506006600083815260200190815260200160002060006101000a81549073ffffffffffffffffffffffffffffffffffffffff021916905561136c826113eb565b9050611378818461147d565b156113e457600360008473ffffffffffffffffffffffffffffffffffffffff1673ffffffffffffffffffffffffffffffffffffffff16815260200190815260200160002080548060010182816113ce919061177a565b9160005260206000209001600083909190915055505b5b50505050565b60008073ffffffffffffffffffffffffffffffffffffffff166002600084815260200190815260200160002060009054906101000a900473ffffffffffffffffffffffffffffffffffffffff1673ffffffffffffffffffffffffffffffffffffffff161415151561145b57600080fd5b60018281548110151561146a57fe5b9060005260206000209001549050919050565b6000611487611569565b6000600360008573ffffffffffffffffffffffffffffffffffffffff1673ffffffffffffffffffffffffffffffffffffffff16815260200190815260200160002080548060200260200160405190810160405280929190818152602001828054801561151257602002820191906000526020600020905b8154815260200190600101908083116114fe575b50505050509150600090505b815181101561155c57818181518110151561153557fe5b9060200190602002015185141561154f5760009250611561565b808060010191505061151e565b600192505b505092915050565b602060405190810160405280600081525090565b602060405190810160405280600081525090565b602060405190810160405280600081525090565b60a060405190810160405280600067ffffffffffffffff1681526020016115ca6117a6565b8152602001600081526020016115de6117ba565b81526020016115eb6117ce565b81525090565b81548183558181151161161e5760050281600502836000526020600020918201910161161d91906117e2565b5b505050565b828054600181600116156101000203166002900490600052602060002090601f016020900481019282601f1061166457805160ff1916838001178555611692565b82800160010185558215611692579182015b82811115611691578251825591602001919060010190611676565b5b50905061169f9190611854565b5090565b82805482825590600052602060002090810192821561171c579160200282015b8281111561171b5782518260006101000a81548173ffffffffffffffffffffffffffffffffffffffff021916908373ffffffffffffffffffffffffffffffffffffffff160217905550916020019190600101906116c3565b5b5090506117299190611879565b5090565b828054828255906000526020600020908101928215611769579160200282015b8281111561176857825182559160200191906001019061174d565b5b5090506117769190611854565b5090565b8154818355818115116117a1578183600052602060002091820191016117a09190611854565b5b505050565b602060405190810160405280600081525090565b602060405190810160405280600081525090565b602060405190810160405280600081525090565b61185191905b8082111561184d57600080820160006101000a81549067ffffffffffffffff021916905560018201600061181c91906118bc565b60028201600090556003820160006118349190611904565b6004820160006118449190611925565b506005016117e8565b5090565b90565b61187691905b8082111561187257600081600090555060010161185a565b5090565b90565b6118b991905b808211156118b557600081816101000a81549073ffffffffffffffffffffffffffffffffffffffff02191690555060010161187f565b5090565b90565b50805460018160011615610100020316600290046000825580601f106118e25750611901565b601f0160209004906000526020600020908101906119009190611854565b5b50565b50805460008255906000526020600020908101906119229190611854565b50565b50805460008255906000526020600020908101906119439190611854565b505600a165627a7a7230582007c643e4087b67b9019bcbd9777d2771e43efb39f650f0efa7b5e09f39f5e28c0029",
  "source": "pragma solidity ^0.4.19;\n\n\ncontract WorkBase {\n//every musical work is represented by a struct with a set of variables\n    struct Work {\n\n      //timestamp from the block when this work was registered\n        uint64 birthTime;\n\n        //description of work, i.e \"musical composition\" or \"sound recording of blablabla\"\n        string typeOfWork;\n\n        //the Keccak-256 hash fingerprint of the uploaded file\n        uint fingerprint;\n\n        //list of contributors address\n        address[] contributors;\n\n        //list of percentage of owned works\n        uint[] splits;\n\n    }\n\n    //An array containing the work struct for all registered works in existence.\n    //the index of the struct in the array is the ID of the work\n    Work[] public workDB;\n\n    //a master database of all issued copyright tokens\n    //whenever a work is created, 100 copyright tokens are created and added to this array,\n    //with their index in the array becoming the copyright token's ID.\n    uint[] public rcnDB;\n\n    // mapping from tokenID to the address of its owner\n    mapping(uint => address) public tokenIdToOwner;\n\n    //mapping from address to an array of workIds\n    mapping(address => uint[]) public addressToWorkList;\n\n    //mapping from workId to array of associated tokenIDs\n    mapping(uint => uint[]) public workIdToTokenList;\n\n    //mapping from owner address to the count of tokens that address owns\n    mapping(address => uint) public addressToTokenCount;\n\n    //mapping from tokenId to an address that has been approved to call transferFrom()\n    //each token can only have one approved address for transfer at any time.\n    mapping (uint => address) public tokenIdToApproved;\n\n    event Create(\n        string typeOfWorkCreate,\n        uint fingerprintCreate,\n        address[] contributorsCreate,\n        uint[] splitsCreate\n    );\n\n    //public function for registering a work\n    //This will update the worklist of all contributors and assign rcn-tokens according to the _splits[] argument\n    function createWork (string _typeOfWork, uint _fingerprint, address[] _contributors, uint[] _splits) public {\n        //need to validate all inputs!\n        //A work struct with info about the work. PS: this data is permanent\n        Work memory _newWork = Work({\n            birthTime: uint64(now),\n            typeOfWork: _typeOfWork,\n            fingerprint: _fingerprint,\n            contributors: _contributors,\n            splits: _splits\n        });\n\n        //we push the newly created work-struct to the workDB\n        //Its ID (index in the workDB array) is assigned the newWorkId variable\n        uint _newWorkId = workDB.push(_newWork) - 1;\n\n        //update each contributors worklist\n        for (uint i= 0; i < _contributors.length; i++) {\n            address _contributor = _contributors[i];\n\n            //update mapping from contributors to their worklist\n            addressToWorkList[_contributor].push(_newWorkId);\n\n            //issue rcn-tokens to involved contributors\n            for (uint j= 0; j < _splits[i]; j++) {\n\n                //create new token and push it to the master rcnDB\n                uint _newTokenId = rcnDB.push(_newWorkId) - 1;\n\n                //Fill the tokenID-list in workIdToTokenList\n                workIdToTokenList[_newWorkId].push(_newTokenId);\n\n                //call the internal transfer function for assigning ownership\n                _transferToken(0, _contributor, _newTokenId);\n            }\n        }\n        Create(_typeOfWork, _fingerprint, _contributors, _splits);\n    }\n\n    //function returning two lists\n    //the first contains all workIds associated with a given _address\n    //the second lists the asociated number of owned tokens for all the workIds in the first list\n    function getWorkListWithTokenCountFromAddress(address _address) public view\n    returns(uint[] workId, uint[] numberOfTokens) {\n\n        //list containing all works associated with an address\n        uint[] memory _workList = addressToWorkList[_address];\n\n        //an empty array of uints with size equal to _worklist\n        uint[] memory _amountList = new uint[](_workList.length);\n\n        //loop over all the workIds in the worklist\n        for (uint i = 0; i < _workList.length; i++) {\n\n            //list of all tokens associated with workId\n            uint[] memory _tokensFromWorkId = _getTokenListFromWorkId(_workList[i]);\n\n            //iterate over all tokens associated with _workList[i]\n            for (uint j = 0; j < _tokensFromWorkId.length; j++) {\n\n                //increment the amountList at i'th position if _address owns the token\n                if (_owns(_address, _tokensFromWorkId[j])) _amountList[i]++;\n            }\n        }\n        return (_workList, _amountList);\n    }\n\n    function getLengthOfWorkDataBase() public view returns (uint) {\n        return workDB.length;\n    }\n\n    function getWorkById(uint _id) public view returns (uint64, string, uint, address[], uint[]) {\n        Work memory localWork = workDB[_id];\n        // bytes32 byteTypeOfWork = stringToBytes32(localWork.typeOfWork);\n        return (localWork.birthTime,\n        localWork.typeOfWork, localWork.fingerprint, localWork.contributors, localWork.splits);\n    }\n\n    //function returning a list of tokenIds an address owns for a given workId\n    function getTokensFromWorkIdAndAddress(uint _workId, address _address) public view\n    returns (uint[] tokenIdList) {\n        //all tokens associated with a workId\n        uint[] memory _tokenList = _getTokenListFromWorkId(_workId);\n\n        uint _numberOfOwnedTokens = 0;\n\n        //loop for generating the number of tokens owned by _address\n        for (uint i = 0; i < _tokenList.length; i++) {\n            if (_owns(_address, _tokenList[i])) _numberOfOwnedTokens++;\n        }\n\n        //create a memory list with the size equal to _numberOfOwnedTokens\n        uint[] memory _result = new uint[](_numberOfOwnedTokens);\n\n        //variable for keeping track of where to insert the tokenId\n        uint _insertIndex = 0;\n        //fill the _result list with tokenIds owned by _address\n        for (uint j = 0; j < _tokenList.length; j++) {\n\n            if (_owns(_address, _tokenList[j])) {\n                _result[_insertIndex] = _tokenList[j];\n                _insertIndex++;\n            }\n        }\n        return _result;\n    }\n\n    //INTERNAL functions used by this and child-contracts\n    //\n    //function returning a list of tokenIds associated with a _workId\n    function _getTokenListFromWorkId (uint _workId) internal view returns (uint[]) {\n        return workIdToTokenList[_workId];\n    }\n\n    //function returning the workId associated with any _tokenId\n    function _getWorkIdfromTokenId(uint _tokenId) internal view returns (uint) {\n        //throws exception if _tokenId is not valid (not owned by anyone)\n        require(tokenIdToOwner[_tokenId] != address(0));\n\n        return rcnDB[_tokenId];\n    }\n\n    //function for checking if a given _workId exists in the worklist associated with an address\n    function _workIdNotInWorkList(uint _workId, address _address) internal view\n    returns(bool) {\n        uint[] memory _workList = addressToWorkList[_address];\n        for (uint i = 0; i < _workList.length; i++) {\n            if (_workId == _workList[i]) return false;\n        }\n        return true;\n    }\n\n    //function for checking if a given address has ownership of a given tokenId\n    function _owns(address _address, uint _tokenId) internal view returns(bool) {\n        return (tokenIdToOwner[_tokenId] == _address);\n    }\n\n    //internal function for token ownership assignment\n    //used in createWork() and transfer()\n    function _transferToken(address _from, address _to, uint _tokenId) internal {\n        //increase the token count associated with the _to address\n        addressToTokenCount[_to]++;\n\n        //for \"newborn tokens\", we insert the (token=>address) key-value pair in the tokenIdToOwner mapping\n        //for existing tokens, we update the address-value of a tokenID-key to the _to address\n        tokenIdToOwner[_tokenId] = _to;\n\n        //For existing tokens, the _from address is not 0x0\n        //This is the case in transer(), and we have to to more checks and operations\n        if (_from != address(0)) {\n\n            addressToTokenCount[_from]--;\n\n            //clear approved transfer allowance for the token\n            delete tokenIdToApproved[_tokenId];\n\n            //get the workId associated with the _tokenId\n            uint _workId = _getWorkIdfromTokenId(_tokenId);\n\n            //check if _to address already has the workId in his workList\n            if (_workIdNotInWorkList(_workId, _to)) {\n\n                //add the workId to worklist associated with the _to address\n                addressToWorkList[_to].push(_workId);\n            }\n        }\n        //Must also emit the Transfer-event\n    }\n\n    //function converting a string to an array of bytes (bytes32)\n    function stringToBytes32(string memory source) private pure returns (bytes32 result) {\n        bytes memory tempEmptyStringTest = bytes(source);\n        if (tempEmptyStringTest.length == 0) {\n            return 0x0;\n        }\n        assembly {\n            result := mload(add(source, 32))\n        }\n    }\n}\n",
  "sourcePath": "/Users/Hallvard/Documents/CopyrightsChain/contracts/WorkBase.sol",
  "compiler": {
    "name": "solc",
    "version": "0.4.19+commit.c4cbbb05.Emscripten.clang"
  },
  "schemaVersion": "2.0.0",
  "updatedAt": "2018-03-13T17:58:10.167Z"
}