{
  "contractName": "WorkBase",
  "abi": [
    {
      "constant": true,
      "inputs": [
        {
          "name": "",
          "type": "address"
        }
      ],
      "name": "addressToTokenCount",
      "outputs": [
        {
          "name": "",
          "type": "uint256"
        }
      ],
      "payable": false,
      "stateMutability": "view",
      "type": "function"
    },
    {
      "constant": true,
      "inputs": [
        {
          "name": "",
          "type": "uint256"
        }
      ],
      "name": "tokenIdToOwner",
      "outputs": [
        {
          "name": "",
          "type": "address"
        }
      ],
      "payable": false,
      "stateMutability": "view",
      "type": "function"
    },
    {
      "constant": true,
      "inputs": [
        {
          "name": "",
          "type": "uint256"
        }
      ],
      "name": "rcnDB",
      "outputs": [
        {
          "name": "",
          "type": "uint256"
        }
      ],
      "payable": false,
      "stateMutability": "view",
      "type": "function"
    },
    {
      "constant": true,
      "inputs": [
        {
          "name": "",
          "type": "uint256"
        }
      ],
      "name": "workDB",
      "outputs": [
        {
          "name": "birthTime",
          "type": "uint64"
        },
        {
          "name": "typeOfWork",
          "type": "string"
        },
        {
          "name": "fingerprint",
          "type": "uint256"
        }
      ],
      "payable": false,
      "stateMutability": "view",
      "type": "function"
    },
    {
      "constant": true,
      "inputs": [
        {
          "name": "",
          "type": "address"
        },
        {
          "name": "",
          "type": "uint256"
        }
      ],
      "name": "addressToWorkList",
      "outputs": [
        {
          "name": "",
          "type": "uint256"
        }
      ],
      "payable": false,
      "stateMutability": "view",
      "type": "function"
    },
    {
      "constant": true,
      "inputs": [
        {
          "name": "",
          "type": "uint256"
        }
      ],
      "name": "tokenIdToApproved",
      "outputs": [
        {
          "name": "",
          "type": "address"
        }
      ],
      "payable": false,
      "stateMutability": "view",
      "type": "function"
    },
    {
      "constant": true,
      "inputs": [
        {
          "name": "",
          "type": "uint256"
        },
        {
          "name": "",
          "type": "uint256"
        }
      ],
      "name": "workIdToTokenList",
      "outputs": [
        {
          "name": "",
          "type": "uint256"
        }
      ],
      "payable": false,
      "stateMutability": "view",
      "type": "function"
    },
    {
      "anonymous": false,
      "inputs": [
        {
          "indexed": false,
          "name": "typeOfWorkCreate",
          "type": "string"
        },
        {
          "indexed": false,
          "name": "fingerprintCreate",
          "type": "uint256"
        },
        {
          "indexed": false,
          "name": "contributorsCreate",
          "type": "address[]"
        },
        {
          "indexed": false,
          "name": "splitsCreate",
          "type": "uint256[]"
        }
      ],
      "name": "Create",
      "type": "event"
    },
    {
      "constant": false,
      "inputs": [
        {
          "name": "_typeOfWork",
          "type": "string"
        },
        {
          "name": "_fingerprint",
          "type": "uint256"
        },
        {
          "name": "_contributors",
          "type": "address[]"
        },
        {
          "name": "_splits",
          "type": "uint256[]"
        }
      ],
      "name": "createWork",
      "outputs": [],
      "payable": false,
      "stateMutability": "nonpayable",
      "type": "function"
    },
    {
      "constant": true,
      "inputs": [
        {
          "name": "_address",
          "type": "address"
        }
      ],
      "name": "getWorkListWithTokenCountFromAddress",
      "outputs": [
        {
          "name": "",
          "type": "uint256[]"
        },
        {
          "name": "",
          "type": "uint256[]"
        }
      ],
      "payable": false,
      "stateMutability": "view",
      "type": "function"
    },
    {
      "constant": true,
      "inputs": [],
      "name": "getLengthOfWorkDataBase",
      "outputs": [
        {
          "name": "",
          "type": "uint256"
        }
      ],
      "payable": false,
      "stateMutability": "view",
      "type": "function"
    },
    {
      "constant": true,
      "inputs": [
        {
          "name": "_id",
          "type": "uint256"
        }
      ],
      "name": "getWorkById",
      "outputs": [
        {
          "name": "",
          "type": "uint64"
        },
        {
          "name": "",
          "type": "string"
        },
        {
          "name": "",
          "type": "uint256"
        },
        {
          "name": "",
          "type": "address[]"
        },
        {
          "name": "",
          "type": "uint256[]"
        }
      ],
      "payable": false,
      "stateMutability": "view",
      "type": "function"
    }
  ],
  "bytecode": "0x6060604052341561000f57600080fd5b6117ac8061001e6000396000f3006060604052600436106100af576000357c0100000000000000000000000000000000000000000000000000000000900463ffffffff168063143f3706146100b457806321f94285146100dd5780634503222c1461012a5780636e9e48ef1461020057806380d5a875146102635780639d079d001461029a578063bdf1fcc914610375578063ca8b3eb2146104c3578063d8e1609f14610519578063eb5653d7146105ff578063efbdc99214610662575b600080fd5b34156100bf57600080fd5b6100c76106a2565b6040518082815260200191505060405180910390f35b34156100e857600080fd5b610114600480803573ffffffffffffffffffffffffffffffffffffffff169060200190919050506106ae565b6040518082815260200191505060405180910390f35b341561013557600080fd5b610161600480803573ffffffffffffffffffffffffffffffffffffffff169060200190919050506106c6565b604051808060200180602001838103835285818151815260200191508051906020019060200280838360005b838110156101a857808201518184015260208101905061018d565b50505050905001838103825284818151815260200191508051906020019060200280838360005b838110156101ea5780820151818401526020810190506101cf565b5050505090500194505050505060405180910390f35b341561020b57600080fd5b610221600480803590602001909190505061085b565b604051808273ffffffffffffffffffffffffffffffffffffffff1673ffffffffffffffffffffffffffffffffffffffff16815260200191505060405180910390f35b341561026e57600080fd5b610284600480803590602001909190505061088e565b6040518082815260200191505060405180910390f35b34156102a557600080fd5b6102bb60048080359060200190919050506108b2565b604051808467ffffffffffffffff1667ffffffffffffffff168152602001806020018381526020018281038252848181546001816001161561010002031660029004815260200191508054600181600116156101000203166002900480156103645780601f1061033957610100808354040283529160200191610364565b820191906000526020600020905b81548152906001019060200180831161034757829003601f168201915b505094505050505060405180910390f35b341561038057600080fd5b61039660048080359060200190919050506108fe565b604051808667ffffffffffffffff1667ffffffffffffffff168152602001806020018581526020018060200180602001848103845288818151815260200191508051906020019080838360005b838110156103fe5780820151818401526020810190506103e3565b50505050905090810190601f16801561042b5780820380516001836020036101000a031916815260200191505b50848103835286818151815260200191508051906020019060200280838360005b8381101561046757808201518184015260208101905061044c565b50505050905001848103825285818151815260200191508051906020019060200280838360005b838110156104a957808201518184015260208101905061048e565b505050509050019850505050505050505060405180910390f35b34156104ce57600080fd5b610503600480803573ffffffffffffffffffffffffffffffffffffffff16906020019091908035906020019091905050610b47565b6040518082815260200191505060405180910390f35b341561052457600080fd5b6105fd600480803590602001908201803590602001908080601f016020809104026020016040519081016040528093929190818152602001838380828437820191505050505050919080359060200190919080359060200190820180359060200190808060200260200160405190810160405280939291908181526020018383602002808284378201915050505050509190803590602001908201803590602001908080602002602001604051908101604052809392919081815260200183836020028082843782019150505050505091905050610b78565b005b341561060a57600080fd5b6106206004808035906020019091905050610efd565b604051808273ffffffffffffffffffffffffffffffffffffffff1673ffffffffffffffffffffffffffffffffffffffff16815260200191505060405180910390f35b341561066d57600080fd5b61068c6004808035906020019091908035906020019091905050610f30565b6040518082815260200191505060405180910390f35b60008080549050905090565b60056020528060005260406000206000915090505481565b6106ce6113a3565b6106d66113a3565b6106de6113a3565b6106e66113a3565b60006106f06113a3565b600080600360008a73ffffffffffffffffffffffffffffffffffffffff1673ffffffffffffffffffffffffffffffffffffffff16815260200190815260200160002080548060200260200160405190810160405280929190818152602001828054801561077c57602002820191906000526020600020905b815481526020019060010190808311610768575b5050505050955085516040518059106107925750595b90808252806020026020018201604052509450600093505b855184101561084a576107d386858151811015156107c457fe5b90602001906020020151610f61565b9250600091505b825182101561083d5782828151811015156107f157fe5b9060200190602002015190506108078982610fd2565b1561083057848481518110151561081a57fe5b9060200190602002018051809190600101815250505b81806001019250506107da565b83806001019450506107aa565b858597509750505050505050915091565b60026020528060005260406000206000915054906101000a900473ffffffffffffffffffffffffffffffffffffffff1681565b60018181548110151561089d57fe5b90600052602060002090016000915090505481565b6000818154811015156108c157fe5b90600052602060002090600502016000915090508060000160009054906101000a900467ffffffffffffffff169080600101908060020154905083565b60006109086113b7565b60006109126113cb565b61091a6113a3565b6109226113df565b60008781548110151561093157fe5b906000526020600020906005020160a060405190810160405290816000820160009054906101000a900467ffffffffffffffff1667ffffffffffffffff1667ffffffffffffffff168152602001600182018054600181600116156101000203166002900480601f016020809104026020016040519081016040528092919081815260200182805460018160011615610100020316600290048015610a165780601f106109eb57610100808354040283529160200191610a16565b820191906000526020600020905b8154815290600101906020018083116109f957829003601f168201915b505050505081526020016002820154815260200160038201805480602002602001604051908101604052809291908181526020018280548015610aae57602002820191906000526020600020905b8160009054906101000a900473ffffffffffffffffffffffffffffffffffffffff1673ffffffffffffffffffffffffffffffffffffffff1681526020019060010190808311610a64575b5050505050815260200160048201805480602002602001604051908101604052809291908181526020018280548015610b0657602002820191906000526020600020905b815481526020019060010190808311610af2575b505050505081525050905080600001518160200151826040015183606001518460800151839350819150809050955095509550955095505091939590929450565b600360205281600052604060002081815481101515610b6257fe5b9060005260206000209001600091509150505481565b610b806113df565b600080600080600060a0604051908101604052804267ffffffffffffffff1681526020018b81526020018a8152602001898152602001888152509550600160008054806001018281610bd2919061142b565b9160005260206000209060050201600089909190915060008201518160000160006101000a81548167ffffffffffffffff021916908367ffffffffffffffff1602179055506020820151816001019080519060200190610c3392919061145d565b50604082015181600201556060820151816003019080519060200190610c5a9291906114dd565b506080820151816004019080519060200190610c77929190611567565b505050039450600093505b8751841015610dbb578784815181101515610c9957fe5b906020019060200201519250600360008473ffffffffffffffffffffffffffffffffffffffff1673ffffffffffffffffffffffffffffffffffffffff1681526020019081526020016000208054806001018281610cf691906115b4565b916000526020600020900160008790919091505550600091505b8684815181101515610d1e57fe5b90602001906020020151821015610dae576001808054806001018281610d4491906115b4565b9160005260206000209001600088909190915055039050600460008681526020019081526020016000208054806001018281610d8091906115b4565b916000526020600020900160008390919091505550610da16000848361103e565b8180600101925050610d10565b8380600101945050610c82565b7fe89359c3ee2f57a8387c3af0a1e675b72db822c2c9278164eacbcf01fd41c2948a8a8a8a60405180806020018581526020018060200180602001848103845288818151815260200191508051906020019080838360005b83811015610e2e578082015181840152602081019050610e13565b50505050905090810190601f168015610e5b5780820380516001836020036101000a031916815260200191505b50848103835286818151815260200191508051906020019060200280838360005b83811015610e97578082015181840152602081019050610e7c565b50505050905001848103825285818151815260200191508051906020019060200280838360005b83811015610ed9578082015181840152602081019050610ebe565b5050505090500197505050505050505060405180910390a150505050505050505050565b60066020528060005260406000206000915054906101000a900473ffffffffffffffffffffffffffffffffffffffff1681565b600460205281600052604060002081815481101515610f4b57fe5b9060005260206000209001600091509150505481565b610f696113a3565b60046000838152602001908152602001600020805480602002602001604051908101604052809291908181526020018280548015610fc657602002820191906000526020600020905b815481526020019060010190808311610fb2575b50505050509050919050565b60008273ffffffffffffffffffffffffffffffffffffffff166002600084815260200190815260200160002060009054906101000a900473ffffffffffffffffffffffffffffffffffffffff1673ffffffffffffffffffffffffffffffffffffffff1614905092915050565b6000600560008473ffffffffffffffffffffffffffffffffffffffff1673ffffffffffffffffffffffffffffffffffffffff16815260200190815260200160002060008154809291906001019190505550826002600084815260200190815260200160002060006101000a81548173ffffffffffffffffffffffffffffffffffffffff021916908373ffffffffffffffffffffffffffffffffffffffff160217905550600073ffffffffffffffffffffffffffffffffffffffff168473ffffffffffffffffffffffffffffffffffffffff1614151561121f57600560008573ffffffffffffffffffffffffffffffffffffffff1673ffffffffffffffffffffffffffffffffffffffff16815260200190815260200160002060008154809291906001900391905055506006600083815260200190815260200160002060006101000a81549073ffffffffffffffffffffffffffffffffffffffff02191690556111a682611225565b90506111b281846112b7565b1561121e57600360008473ffffffffffffffffffffffffffffffffffffffff1673ffffffffffffffffffffffffffffffffffffffff168152602001908152602001600020805480600101828161120891906115b4565b9160005260206000209001600083909190915055505b5b50505050565b60008073ffffffffffffffffffffffffffffffffffffffff166002600084815260200190815260200160002060009054906101000a900473ffffffffffffffffffffffffffffffffffffffff1673ffffffffffffffffffffffffffffffffffffffff161415151561129557600080fd5b6001828154811015156112a457fe5b9060005260206000209001549050919050565b60006112c16113a3565b6000600360008573ffffffffffffffffffffffffffffffffffffffff1673ffffffffffffffffffffffffffffffffffffffff16815260200190815260200160002080548060200260200160405190810160405280929190818152602001828054801561134c57602002820191906000526020600020905b815481526020019060010190808311611338575b50505050509150600090505b815181101561139657818181518110151561136f57fe5b90602001906020020151851415611389576000925061139b565b8080600101915050611358565b600192505b505092915050565b602060405190810160405280600081525090565b602060405190810160405280600081525090565b602060405190810160405280600081525090565b60a060405190810160405280600067ffffffffffffffff1681526020016114046115e0565b8152602001600081526020016114186115f4565b8152602001611425611608565b81525090565b81548183558181151161145857600502816005028360005260206000209182019101611457919061161c565b5b505050565b828054600181600116156101000203166002900490600052602060002090601f016020900481019282601f1061149e57805160ff19168380011785556114cc565b828001600101855582156114cc579182015b828111156114cb5782518255916020019190600101906114b0565b5b5090506114d9919061168e565b5090565b828054828255906000526020600020908101928215611556579160200282015b828111156115555782518260006101000a81548173ffffffffffffffffffffffffffffffffffffffff021916908373ffffffffffffffffffffffffffffffffffffffff160217905550916020019190600101906114fd565b5b50905061156391906116b3565b5090565b8280548282559060005260206000209081019282156115a3579160200282015b828111156115a2578251825591602001919060010190611587565b5b5090506115b0919061168e565b5090565b8154818355818115116115db578183600052602060002091820191016115da919061168e565b5b505050565b602060405190810160405280600081525090565b602060405190810160405280600081525090565b602060405190810160405280600081525090565b61168b91905b8082111561168757600080820160006101000a81549067ffffffffffffffff021916905560018201600061165691906116f6565b600282016000905560038201600061166e919061173e565b60048201600061167e919061175f565b50600501611622565b5090565b90565b6116b091905b808211156116ac576000816000905550600101611694565b5090565b90565b6116f391905b808211156116ef57600081816101000a81549073ffffffffffffffffffffffffffffffffffffffff0219169055506001016116b9565b5090565b90565b50805460018160011615610100020316600290046000825580601f1061171c575061173b565b601f01602090049060005260206000209081019061173a919061168e565b5b50565b508054600082559060005260206000209081019061175c919061168e565b50565b508054600082559060005260206000209081019061177d919061168e565b505600a165627a7a723058204ac409b922c2403c19f3df981cdec3ae6271c3f0521bbcbe3999f6dc96b213d10029",
  "source": "pragma solidity ^0.4.19;\n\n\ncontract WorkBase {\n//every musical work is represented by a struct with a set of variables\n    struct Work {\n\n      //timestamp from the block when this work was registered\n        uint64 birthTime;\n\n        //description of work, i.e \"musical composition\" or \"sound recording of blablabla\"\n        string typeOfWork;\n\n        //the Keccak-256 hash fingerprint of the uploaded file\n        uint fingerprint;\n\n        //list of contributors address\n        address[] contributors;\n\n        //list of percentage of owned works\n        uint[] splits;\n\n    }\n\n    //An array containing the work struct for all registered works in existence.\n    //the index of the struct in the array is the ID of the work\n    Work[] public workDB;\n\n    //a master database of all issued copyright tokens\n    //whenever a work is created, 100 copyright tokens are created and added to this array,\n    //with their index in the array becoming the copyright token's ID.\n    uint[] public rcnDB;\n\n    // mapping from tokenID to the address of its owner\n    mapping(uint => address) public tokenIdToOwner;\n\n    //mapping from address to an array of workIds\n    mapping(address => uint[]) public addressToWorkList;\n\n    //mapping from workId to array of associated tokenIDs\n    mapping(uint => uint[]) public workIdToTokenList;\n\n    //mapping from owner address to the count of tokens that address owns\n    mapping(address => uint) public addressToTokenCount;\n\n    //mapping from tokenId to an address that has been approved to call transferFrom()\n    //each token can only have one approved address for transfer at any time.\n    mapping (uint => address) public tokenIdToApproved;\n\n    event Create(\n        string typeOfWorkCreate,\n        uint fingerprintCreate,\n        address[] contributorsCreate,\n        uint[] splitsCreate\n    );\n\n    //public function for registering a work\n    //This will update the worklist of all contributors and assign rcn-tokens according to the _splits[] argument\n    function createWork (string _typeOfWork, uint _fingerprint, address[] _contributors, uint[] _splits) public {\n        //need to validate all inputs!\n        //A work struct with info about the work. PS: this data is permanent\n        Work memory _newWork = Work({\n            birthTime: uint64(now),\n            typeOfWork: _typeOfWork,\n            fingerprint: _fingerprint,\n            contributors: _contributors,\n            splits: _splits\n        });\n\n        //we push the newly created work-struct to the workDB\n        //Its ID (index in the workDB array) is assigned the newWorkId variable\n        uint _newWorkId = workDB.push(_newWork) - 1;\n\n        //update each contributors worklist\n        for (uint i= 0; i < _contributors.length; i++) {\n            address _contributor = _contributors[i];\n\n            //update mapping from contributors to their worklist\n            addressToWorkList[_contributor].push(_newWorkId);\n\n            //issue rcn-tokens to involved contributors\n            for (uint j= 0; j < _splits[i]; j++) {\n\n                //create new token and push it to the master rcnDB\n                uint _newTokenId = rcnDB.push(_newWorkId) - 1;\n\n                //Fill the tokenID-list in workIdToTokenList\n                workIdToTokenList[_newWorkId].push(_newTokenId);\n\n                //call the internal transfer function for assigning ownership\n                _transferToken(0, _contributor, _newTokenId);\n            }\n        }\n        Create(_typeOfWork, _fingerprint, _contributors, _splits);\n    }\n\n    function getWorkListWithTokenCountFromAddress(address _address) public view returns(uint[], uint[]) {\n        //list containing all works associated with an address\n        uint[] memory _workList = addressToWorkList[_address];\n\n        //an empty array of uints with size equal to _worklist\n        uint[] memory _amountList = new uint[](_workList.length);\n\n        for (uint i = 0; i < _workList.length; i++) {\n            //list of all tokens associated with workId\n            uint[] memory _tokensFromWorkId = getTokenListFromWorkId(_workList[i]);\n\n            for (uint j = 0; j < _tokensFromWorkId.length; j++) {\n\n                uint _tokenId = _tokensFromWorkId[j];\n\n                if (_owns(_address, _tokenId)) {\n                    _amountList[i]++;\n                }\n            }\n        }\n\n        return (_workList, _amountList);\n    }\n\n    function getLengthOfWorkDataBase() public view returns (uint) {\n        return workDB.length;\n    }\n\n    function getWorkById(uint _id) public view returns (uint64, string, uint, address[], uint[]) {\n        Work memory localWork = workDB[_id];\n        // bytes32 byteTypeOfWork = stringToBytes32(localWork.typeOfWork);\n        return (localWork.birthTime,\n        localWork.typeOfWork, localWork.fingerprint, localWork.contributors, localWork.splits);\n    }\n    //INTERNAL functions used by this and child-contracts\n    //\n\n    //function returning a list of tokenIds associated with a _workId\n    function getTokenListFromWorkId (uint _workId) internal view returns (uint[]) {\n        return workIdToTokenList[_workId];\n    }\n\n    //function returning the workId associated with any _tokenId\n    function getWorkIdfromTokenId(uint _tokenId) internal view returns (uint) {\n        //throws exception if _tokenId is not valid (not owned by anyone)\n        require(tokenIdToOwner[_tokenId] != address(0));\n\n        return rcnDB[_tokenId];\n    }\n\n    //function for checking if a given _workId exists in the worklist associated with an address\n    function _workIdNotInWorkList(uint _workId, address _address) internal view returns(bool) {\n        uint[] memory _workList = addressToWorkList[_address];\n        for (uint i = 0; i < _workList.length; i++) {\n            if (_workId == _workList[i]) {\n                return false;\n            }\n        }\n        return true;\n    }\n\n    //function for checking if a given address has ownership of a given tokenId\n    function _owns(address _address, uint _tokenId) internal view returns(bool) {\n        return (tokenIdToOwner[_tokenId] == _address);\n    }\n\n    //internal function for token ownership assignment\n    //used in createWork() and transfer()\n    function _transferToken(address _from, address _to, uint _tokenId) internal {\n        //increase the token count associated with the _to address\n        addressToTokenCount[_to]++;\n\n        //for \"newborn tokens\", we insert the (token=>address) key-value pair in the tokenIdToOwner mapping\n        //for existing tokens, we update the address-value of a tokenID-key to the _to address\n        tokenIdToOwner[_tokenId] = _to;\n\n        //For existing tokens, the _from address is not 0x0\n        //This is the case in transer(), and we have to to more checks and operations\n        if (_from != address(0)) {\n\n            addressToTokenCount[_from]--;\n\n            //clear approved transfer allowance for the token\n            delete tokenIdToApproved[_tokenId];\n\n            //get the workId associated with the _tokenId\n            uint _workId = getWorkIdfromTokenId(_tokenId);\n\n            //check if _to address already has the workId in his workList\n            if (_workIdNotInWorkList(_workId, _to)) {\n\n                //add the workId to worklist associated with the _to address\n                addressToWorkList[_to].push(_workId);\n            }\n        }\n        //Must also emit the Transfer-event\n    }\n\n    //function converting a string to an array of bytes (bytes32)\n    function stringToBytes32(string memory source) private pure returns (bytes32 result) {\n        bytes memory tempEmptyStringTest = bytes(source);\n        if (tempEmptyStringTest.length == 0) {\n            return 0x0;\n        }\n        assembly {\n            result := mload(add(source, 32))\n        }\n    }\n}\n",
  "sourcePath": "/Users/Hallvard/Documents/CopyrightsChain/contracts/WorkBase.sol",
  "compiler": {
    "name": "solc",
    "version": "0.4.19+commit.c4cbbb05.Emscripten.clang"
  },
  "schemaVersion": "2.0.0",
  "updatedAt": "2018-03-09T19:24:52.929Z"
}